{
  "_format": "hh-sol-artifact-1",
  "contractName": "CrowdSourcingFactory",
  "sourceName": "contracts/CrowdSourcingFactory.sol",
  "abi": [
    {
      "inputs": [
        {
          "internalType": "address",
          "name": "_implementation",
          "type": "address"
        }
      ],
      "stateMutability": "nonpayable",
      "type": "constructor"
    },
    {
      "inputs": [],
      "name": "CreationFailed",
      "type": "error"
    },
    {
      "inputs": [],
      "name": "InsufficientDeposit",
      "type": "error"
    },
    {
      "inputs": [],
      "name": "InsufficientFunds",
      "type": "error"
    },
    {
      "inputs": [],
      "name": "WithdrawalFailed",
      "type": "error"
    },
    {
      "anonymous": false,
      "inputs": [
        {
          "indexed": true,
          "internalType": "address",
          "name": "owner",
          "type": "address"
        },
        {
          "indexed": false,
          "internalType": "uint256",
          "name": "amount",
          "type": "uint256"
        },
        {
          "indexed": false,
          "internalType": "address",
          "name": "cloneAddress",
          "type": "address"
        },
        {
          "indexed": false,
          "internalType": "string",
          "name": "fundingCID",
          "type": "string"
        }
      ],
      "name": "NewCrowdFundingCreated",
      "type": "event"
    },
    {
      "anonymous": false,
      "inputs": [
        {
          "indexed": true,
          "internalType": "address",
          "name": "previousOwner",
          "type": "address"
        },
        {
          "indexed": true,
          "internalType": "address",
          "name": "newOwner",
          "type": "address"
        }
      ],
      "name": "OwnershipTransferred",
      "type": "event"
    },
    {
      "inputs": [
        {
          "internalType": "string",
          "name": "_fundingCID",
          "type": "string"
        },
        {
          "internalType": "uint256",
          "name": "_amount",
          "type": "uint256"
        },
        {
          "internalType": "uint256",
          "name": "_duration",
          "type": "uint256"
        }
      ],
      "name": "createCrowdFundingContract",
      "outputs": [
        {
          "internalType": "address",
          "name": "",
          "type": "address"
        }
      ],
      "stateMutability": "payable",
      "type": "function"
    },
    {
      "inputs": [],
      "name": "deployedContracts",
      "outputs": [
        {
          "internalType": "address[]",
          "name": "",
          "type": "address[]"
        }
      ],
      "stateMutability": "view",
      "type": "function"
    },
    {
      "inputs": [],
      "name": "owner",
      "outputs": [
        {
          "internalType": "address",
          "name": "",
          "type": "address"
        }
      ],
      "stateMutability": "view",
      "type": "function"
    },
    {
      "inputs": [],
      "name": "renounceOwnership",
      "outputs": [],
      "stateMutability": "nonpayable",
      "type": "function"
    },
    {
      "inputs": [
        {
          "internalType": "address",
          "name": "newOwner",
          "type": "address"
        }
      ],
      "name": "transferOwnership",
      "outputs": [],
      "stateMutability": "nonpayable",
      "type": "function"
    },
    {
      "inputs": [],
      "name": "withdrawFunds",
      "outputs": [],
      "stateMutability": "nonpayable",
      "type": "function"
    },
    {
      "stateMutability": "payable",
      "type": "receive"
    }
  ],
  "bytecode": "0x60a060405266038d7ea4c680006002553480156200001c57600080fd5b50604051620010dd380380620010dd8339818101604052810190620000429190620001d3565b62000062620000566200009d60201b60201c565b620000a560201b60201c565b8073ffffffffffffffffffffffffffffffffffffffff1660808173ffffffffffffffffffffffffffffffffffffffff16815250505062000205565b600033905090565b60008060009054906101000a900473ffffffffffffffffffffffffffffffffffffffff169050816000806101000a81548173ffffffffffffffffffffffffffffffffffffffff021916908373ffffffffffffffffffffffffffffffffffffffff1602179055508173ffffffffffffffffffffffffffffffffffffffff168173ffffffffffffffffffffffffffffffffffffffff167f8be0079c531659141344cd1fd0a4f28419497f9722a3daafe3b4186f6b6457e060405160405180910390a35050565b600080fd5b600073ffffffffffffffffffffffffffffffffffffffff82169050919050565b60006200019b826200016e565b9050919050565b620001ad816200018e565b8114620001b957600080fd5b50565b600081519050620001cd81620001a2565b92915050565b600060208284031215620001ec57620001eb62000169565b5b6000620001fc84828501620001bc565b91505092915050565b608051610ebc6200022160003960006102b20152610ebc6000f3fe6080604052600436106100595760003560e01c806324600fc314610065578063715018a61461007c5780638da5cb5b14610093578063c43b8423146100be578063c54a9588146100ee578063f2fde38b1461011957610060565b3661006057005b600080fd5b34801561007157600080fd5b5061007a610142565b005b34801561008857600080fd5b50610091610230565b005b34801561009f57600080fd5b506100a8610244565b6040516100b59190610826565b60405180910390f35b6100d860048036038101906100d391906109d1565b61026d565b6040516100e59190610826565b60405180910390f35b3480156100fa57600080fd5b506101036104d0565b6040516101109190610afe565b60405180910390f35b34801561012557600080fd5b50610140600480360381019061013b9190610b4c565b61055e565b005b61014a6105e1565b600047905060008103610189576040517f356680b700000000000000000000000000000000000000000000000000000000815260040160405180910390fd5b60003373ffffffffffffffffffffffffffffffffffffffff16826040516101af90610baa565b60006040518083038185875af1925050503d80600081146101ec576040519150601f19603f3d011682016040523d82523d6000602084013e6101f1565b606091505b505090508061022c576040517f27fcd9d100000000000000000000000000000000000000000000000000000000815260040160405180910390fd5b5050565b6102386105e1565b610242600061065f565b565b60008060009054906101000a900473ffffffffffffffffffffffffffffffffffffffff16905090565b60006002543410156102ab576040517f0e1eddda00000000000000000000000000000000000000000000000000000000815260040160405180910390fd5b60006102d67f0000000000000000000000000000000000000000000000000000000000000000610723565b905060008173ffffffffffffffffffffffffffffffffffffffff1686868660405160240161030693929190610c4d565b6040516020818303038152906040527f977d08c0000000000000000000000000000000000000000000000000000000007bffffffffffffffffffffffffffffffffffffffffffffffffffffffff19166020820180517bffffffffffffffffffffffffffffffffffffffffffffffffffffffff83818316178352505050506040516103909190610cc7565b6000604051808303816000865af19150503d80600081146103cd576040519150601f19603f3d011682016040523d82523d6000602084013e6103d2565b606091505b505090508061040d576040517fd786d39300000000000000000000000000000000000000000000000000000000815260040160405180910390fd5b6001829080600181540180825580915050600190039060005260206000200160009091909190916101000a81548173ffffffffffffffffffffffffffffffffffffffff021916908373ffffffffffffffffffffffffffffffffffffffff1602179055503373ffffffffffffffffffffffffffffffffffffffff167f3ed5503670ea3fb26efced58bf9ff3575280523b8b1bf031f639417a5b8005d460025484896040516104bc93929190610cde565b60405180910390a281925050509392505050565b6060600180548060200260200160405190810160405280929190818152602001828054801561055457602002820191906000526020600020905b8160009054906101000a900473ffffffffffffffffffffffffffffffffffffffff1673ffffffffffffffffffffffffffffffffffffffff168152602001906001019080831161050a575b5050505050905090565b6105666105e1565b600073ffffffffffffffffffffffffffffffffffffffff168173ffffffffffffffffffffffffffffffffffffffff16036105d5576040517f08c379a00000000000000000000000000000000000000000000000000000000081526004016105cc90610d8e565b60405180910390fd5b6105de8161065f565b50565b6105e96107dd565b73ffffffffffffffffffffffffffffffffffffffff16610607610244565b73ffffffffffffffffffffffffffffffffffffffff161461065d576040517f08c379a000000000000000000000000000000000000000000000000000000000815260040161065490610dfa565b60405180910390fd5b565b60008060009054906101000a900473ffffffffffffffffffffffffffffffffffffffff169050816000806101000a81548173ffffffffffffffffffffffffffffffffffffffff021916908373ffffffffffffffffffffffffffffffffffffffff1602179055508173ffffffffffffffffffffffffffffffffffffffff168173ffffffffffffffffffffffffffffffffffffffff167f8be0079c531659141344cd1fd0a4f28419497f9722a3daafe3b4186f6b6457e060405160405180910390a35050565b6000763d602d80600a3d3981f3363d3d373d3d3d363d730000008260601b60e81c176000526e5af43d82803e903d91602b57fd5bf38260781b17602052603760096000f09050600073ffffffffffffffffffffffffffffffffffffffff168173ffffffffffffffffffffffffffffffffffffffff16036107d8576040517f08c379a00000000000000000000000000000000000000000000000000000000081526004016107cf90610e66565b60405180910390fd5b919050565b600033905090565b600073ffffffffffffffffffffffffffffffffffffffff82169050919050565b6000610810826107e5565b9050919050565b61082081610805565b82525050565b600060208201905061083b6000830184610817565b92915050565b6000604051905090565b600080fd5b600080fd5b600080fd5b600080fd5b6000601f19601f8301169050919050565b7f4e487b7100000000000000000000000000000000000000000000000000000000600052604160045260246000fd5b6108a88261085f565b810181811067ffffffffffffffff821117156108c7576108c6610870565b5b80604052505050565b60006108da610841565b90506108e6828261089f565b919050565b600067ffffffffffffffff82111561090657610905610870565b5b61090f8261085f565b9050602081019050919050565b82818337600083830152505050565b600061093e610939846108eb565b6108d0565b90508281526020810184848401111561095a5761095961085a565b5b61096584828561091c565b509392505050565b600082601f83011261098257610981610855565b5b813561099284826020860161092b565b91505092915050565b6000819050919050565b6109ae8161099b565b81146109b957600080fd5b50565b6000813590506109cb816109a5565b92915050565b6000806000606084860312156109ea576109e961084b565b5b600084013567ffffffffffffffff811115610a0857610a07610850565b5b610a148682870161096d565b9350506020610a25868287016109bc565b9250506040610a36868287016109bc565b9150509250925092565b600081519050919050565b600082825260208201905092915050565b6000819050602082019050919050565b610a7581610805565b82525050565b6000610a878383610a6c565b60208301905092915050565b6000602082019050919050565b6000610aab82610a40565b610ab58185610a4b565b9350610ac083610a5c565b8060005b83811015610af1578151610ad88882610a7b565b9750610ae383610a93565b925050600181019050610ac4565b5085935050505092915050565b60006020820190508181036000830152610b188184610aa0565b905092915050565b610b2981610805565b8114610b3457600080fd5b50565b600081359050610b4681610b20565b92915050565b600060208284031215610b6257610b6161084b565b5b6000610b7084828501610b37565b91505092915050565b600081905092915050565b50565b6000610b94600083610b79565b9150610b9f82610b84565b600082019050919050565b6000610bb582610b87565b9150819050919050565b600081519050919050565b600082825260208201905092915050565b60005b83811015610bf9578082015181840152602081019050610bde565b60008484015250505050565b6000610c1082610bbf565b610c1a8185610bca565b9350610c2a818560208601610bdb565b610c338161085f565b840191505092915050565b610c478161099b565b82525050565b60006060820190508181036000830152610c678186610c05565b9050610c766020830185610c3e565b610c836040830184610c3e565b949350505050565b600081519050919050565b6000610ca182610c8b565b610cab8185610b79565b9350610cbb818560208601610bdb565b80840191505092915050565b6000610cd38284610c96565b915081905092915050565b6000606082019050610cf36000830186610c3e565b610d006020830185610817565b8181036040830152610d128184610c05565b9050949350505050565b7f4f776e61626c653a206e6577206f776e657220697320746865207a65726f206160008201527f6464726573730000000000000000000000000000000000000000000000000000602082015250565b6000610d78602683610bca565b9150610d8382610d1c565b604082019050919050565b60006020820190508181036000830152610da781610d6b565b9050919050565b7f4f776e61626c653a2063616c6c6572206973206e6f7420746865206f776e6572600082015250565b6000610de4602083610bca565b9150610def82610dae565b602082019050919050565b60006020820190508181036000830152610e1381610dd7565b9050919050565b7f455243313136373a20637265617465206661696c656400000000000000000000600082015250565b6000610e50601683610bca565b9150610e5b82610e1a565b602082019050919050565b60006020820190508181036000830152610e7f81610e43565b905091905056fea2646970667358221220347548cb17813d2b74448985b55ec77cc66ec5c214743b7bbb6246982fe917b164736f6c63430008130033",
  "linkReferences": {},
  "deployedLinkReferences": {}
}