{
  "_format": "hh-sol-artifact-1",
  "contractName": "CrowdFundingContract",
  "sourceName": "contracts/CrowdFundingContract.sol",
  "abi": [
    {
      "inputs": [],
      "name": "AlreadyVoted",
      "type": "error"
    },
    {
      "inputs": [],
      "name": "CampaignEnded",
      "type": "error"
    },
    {
      "inputs": [],
      "name": "Completed_3_Milestones",
      "type": "error"
    },
    {
      "inputs": [],
      "name": "FundingGoalReached",
      "type": "error"
    },
    {
      "inputs": [],
      "name": "FundingPeriodStillOn",
      "type": "error"
    },
    {
      "inputs": [],
      "name": "InsufficientFunds",
      "type": "error"
    },
    {
      "inputs": [],
      "name": "InvalidDuration",
      "type": "error"
    },
    {
      "inputs": [],
      "name": "MilestoneNotPending",
      "type": "error"
    },
    {
      "inputs": [],
      "name": "MilestonePending",
      "type": "error"
    },
    {
      "inputs": [],
      "name": "MilestonesLimitReached",
      "type": "error"
    },
    {
      "inputs": [],
      "name": "NotADonor",
      "type": "error"
    },
    {
      "inputs": [],
      "name": "NotOwner",
      "type": "error"
    },
    {
      "inputs": [],
      "name": "RefundAlreadyInitiated",
      "type": "error"
    },
    {
      "inputs": [],
      "name": "VotingStillOn",
      "type": "error"
    },
    {
      "inputs": [],
      "name": "WithdrawalFailed",
      "type": "error"
    },
    {
      "anonymous": false,
      "inputs": [
        {
          "indexed": true,
          "internalType": "address",
          "name": "donor",
          "type": "address"
        },
        {
          "indexed": false,
          "internalType": "uint256",
          "name": "amount",
          "type": "uint256"
        }
      ],
      "name": "FundsDonated",
      "type": "event"
    },
    {
      "anonymous": false,
      "inputs": [
        {
          "indexed": true,
          "internalType": "address",
          "name": "owner",
          "type": "address"
        },
        {
          "indexed": false,
          "internalType": "uint256",
          "name": "amount",
          "type": "uint256"
        }
      ],
      "name": "FundsWithdrawn",
      "type": "event"
    },
    {
      "anonymous": false,
      "inputs": [
        {
          "indexed": false,
          "internalType": "uint8",
          "name": "version",
          "type": "uint8"
        }
      ],
      "name": "Initialized",
      "type": "event"
    },
    {
      "anonymous": false,
      "inputs": [
        {
          "indexed": true,
          "internalType": "address",
          "name": "owner",
          "type": "address"
        },
        {
          "indexed": false,
          "internalType": "uint256",
          "name": "period",
          "type": "uint256"
        }
      ],
      "name": "MilestoneCreated",
      "type": "event"
    },
    {
      "anonymous": false,
      "inputs": [
        {
          "indexed": false,
          "internalType": "uint256",
          "name": "yesvote",
          "type": "uint256"
        },
        {
          "indexed": false,
          "internalType": "uint256",
          "name": "novote",
          "type": "uint256"
        }
      ],
      "name": "MilestoneRejected",
      "type": "event"
    },
    {
      "anonymous": false,
      "inputs": [
        {
          "indexed": false,
          "internalType": "uint32",
          "name": "milestoneCounter",
          "type": "uint32"
        },
        {
          "indexed": false,
          "internalType": "address",
          "name": "voter",
          "type": "address"
        },
        {
          "indexed": false,
          "internalType": "bool",
          "name": "vote",
          "type": "bool"
        }
      ],
      "name": "MilestoneVoted",
      "type": "event"
    },
    {
      "anonymous": false,
      "inputs": [
        {
          "indexed": false,
          "internalType": "address",
          "name": "donor",
          "type": "address"
        },
        {
          "indexed": false,
          "internalType": "uint256",
          "name": "amount",
          "type": "uint256"
        }
      ],
      "name": "RefundFailed",
      "type": "event"
    },
    {
      "anonymous": false,
      "inputs": [],
      "name": "RefundInitiated",
      "type": "event"
    },
    {
      "inputs": [
        {
          "internalType": "string",
          "name": "milestoneCID",
          "type": "string"
        },
        {
          "internalType": "uint256",
          "name": "votingPeriod",
          "type": "uint256"
        },
        {
          "internalType": "uint32",
          "name": "_milestoneCounter",
          "type": "uint32"
        }
      ],
      "name": "createNewMilestone",
      "outputs": [],
      "stateMutability": "nonpayable",
      "type": "function"
    },
    {
      "inputs": [],
      "name": "getCampaignInfo",
      "outputs": [
        {
          "internalType": "address",
          "name": "",
          "type": "address"
        },
        {
          "internalType": "uint256",
          "name": "",
          "type": "uint256"
        },
        {
          "internalType": "uint256",
          "name": "",
          "type": "uint256"
        },
        {
          "internalType": "string",
          "name": "",
          "type": "string"
        },
        {
          "internalType": "uint256",
          "name": "",
          "type": "uint256"
        },
        {
          "internalType": "uint256",
          "name": "",
          "type": "uint256"
        },
        {
          "internalType": "bool",
          "name": "",
          "type": "bool"
        },
        {
          "internalType": "uint32",
          "name": "",
          "type": "uint32"
        },
        {
          "internalType": "uint256",
          "name": "",
          "type": "uint256"
        },
        {
          "internalType": "address[]",
          "name": "",
          "type": "address[]"
        }
      ],
      "stateMutability": "view",
      "type": "function"
    },
    {
      "inputs": [
        {
          "internalType": "uint32",
          "name": "_milestoneCounter",
          "type": "uint32"
        }
      ],
      "name": "getMilestones",
      "outputs": [
        {
          "components": [
            {
              "internalType": "string",
              "name": "milestoneCID",
              "type": "string"
            },
            {
              "internalType": "bool",
              "name": "approved",
              "type": "bool"
            },
            {
              "internalType": "uint256",
              "name": "votingPeriod",
              "type": "uint256"
            },
            {
              "internalType": "enum CrowdFundingContract.MilestoneStatus",
              "name": "status",
              "type": "uint8"
            },
            {
              "components": [
                {
                  "internalType": "address",
                  "name": "donorAddress",
                  "type": "address"
                },
                {
                  "internalType": "bool",
                  "name": "vote",
                  "type": "bool"
                }
              ],
              "internalType": "struct CrowdFundingContract.MilestoneVote[]",
              "name": "votes",
              "type": "tuple[]"
            }
          ],
          "internalType": "struct CrowdFundingContract.Milestone",
          "name": "",
          "type": "tuple"
        }
      ],
      "stateMutability": "view",
      "type": "function"
    },
    {
      "inputs": [
        {
          "internalType": "string",
          "name": "_fundingCId",
          "type": "string"
        },
        {
          "internalType": "uint256",
          "name": "_amount",
          "type": "uint256"
        },
        {
          "internalType": "uint256",
          "name": "_duration",
          "type": "uint256"
        }
      ],
      "name": "initialize",
      "outputs": [],
      "stateMutability": "nonpayable",
      "type": "function"
    },
    {
      "inputs": [],
      "name": "makeDonation",
      "outputs": [],
      "stateMutability": "payable",
      "type": "function"
    },
    {
      "inputs": [
        {
          "internalType": "bytes",
          "name": "",
          "type": "bytes"
        }
      ],
      "name": "performUpkeep",
      "outputs": [],
      "stateMutability": "nonpayable",
      "type": "function"
    },
    {
      "inputs": [],
      "name": "refundTimestamp",
      "outputs": [
        {
          "internalType": "uint256",
          "name": "",
          "type": "uint256"
        }
      ],
      "stateMutability": "view",
      "type": "function"
    },
    {
      "inputs": [
        {
          "internalType": "address",
          "name": "",
          "type": "address"
        }
      ],
      "name": "s_donors",
      "outputs": [
        {
          "internalType": "uint256",
          "name": "",
          "type": "uint256"
        }
      ],
      "stateMutability": "view",
      "type": "function"
    },
    {
      "inputs": [
        {
          "internalType": "uint256",
          "name": "",
          "type": "uint256"
        }
      ],
      "name": "s_milestones",
      "outputs": [
        {
          "internalType": "string",
          "name": "milestoneCID",
          "type": "string"
        },
        {
          "internalType": "bool",
          "name": "approved",
          "type": "bool"
        },
        {
          "internalType": "uint256",
          "name": "votingPeriod",
          "type": "uint256"
        },
        {
          "internalType": "enum CrowdFundingContract.MilestoneStatus",
          "name": "status",
          "type": "uint8"
        }
      ],
      "stateMutability": "view",
      "type": "function"
    },
    {
      "inputs": [
        {
          "internalType": "bool",
          "name": "vote",
          "type": "bool"
        },
        {
          "internalType": "uint32",
          "name": "_milestoneCounter",
          "type": "uint32"
        }
      ],
      "name": "voteOnMilestone",
      "outputs": [],
      "stateMutability": "nonpayable",
      "type": "function"
    },
    {
      "inputs": [
        {
          "internalType": "uint32",
          "name": "_milestoneCounter",
          "type": "uint32"
        }
      ],
      "name": "withdrawMilestone",
      "outputs": [],
      "stateMutability": "nonpayable",
      "type": "function"
    },
    {
      "stateMutability": "payable",
      "type": "receive"
    }
  ],
  "bytecode": "0x608060405234801561001057600080fd5b50612da1806100206000396000f3fe6080604052600436106100a05760003560e01c8063953e4cb611610064578063953e4cb614610170578063977d08c014610199578063a8f24df8146101c2578063bc9e993314610202578063d6290cd71461023f578063e4b69f7c14610273576100a7565b80631f23d446146100ac5780632112c11d146100d7578063213f751e1461011457806340ea0a941461013d5780634585e33b14610147576100a7565b366100a757005b600080fd5b3480156100b857600080fd5b506100c161029c565b6040516100ce9190611c27565b60405180910390f35b3480156100e357600080fd5b506100fe60048036038101906100f99190611cb4565b6102a2565b60405161010b9190611c27565b60405180910390f35b34801561012057600080fd5b5061013b60048036038101906101369190611e8f565b6102ba565b005b610145610540565b005b34801561015357600080fd5b5061016e60048036038101906101699190611f5e565b6107ed565b005b34801561017c57600080fd5b5061019760048036038101906101929190611fe3565b610bad565b005b3480156101a557600080fd5b506101c060048036038101906101bb9190612079565b610eb7565b005b3480156101ce57600080fd5b506101e960048036038101906101e491906120ed565b61109e565b6040516101f9949392919061221f565b60405180910390f35b34801561020e57600080fd5b506102296004803603810190610224919061226b565b611170565b6040516102369190612479565b60405180910390f35b34801561024b57600080fd5b50610254611361565b60405161026a9a99989796959493929190612568565b60405180910390f35b34801561027f57600080fd5b5061029a6004803603810190610295919061226b565b6114fd565b005b60075481565b600a6020528060005260406000206000915090505481565b600660019054906101000a900473ffffffffffffffffffffffffffffffffffffffff1673ffffffffffffffffffffffffffffffffffffffff163373ffffffffffffffffffffffffffffffffffffffff1614610341576040517f30cd747100000000000000000000000000000000000000000000000000000000815260040160405180910390fd5b6003600060029054906101000a900463ffffffff1663ffffffff1603610393576040517ffd72ae9700000000000000000000000000000000000000000000000000000000815260040160405180910390fd5b6002808111156103a6576103a56121a8565b5b600b60008363ffffffff16815260200190815260200160002060030160009054906101000a900460ff1660028111156103e2576103e16121a8565b5b03610419576040517f1537a1e800000000000000000000000000000000000000000000000000000000815260040160405180910390fd5b60038163ffffffff16111561045a576040517f08dd459600000000000000000000000000000000000000000000000000000000815260040160405180910390fd5b6000600b60008363ffffffff168152602001908152602001600020905083816000019081610488919061281e565b5060008160010160006101000a81548160ff02191690831515021790555082816002018190555060028160030160006101000a81548160ff021916908360028111156104d7576104d66121a8565b5b02179055508060040160006104ec9190611b58565b3373ffffffffffffffffffffffffffffffffffffffff167f0602e1ee094e5b9bca3008c6dc2b270c10b72e5ad44b52232b6ababb78d6d89e846040516105329190611c27565b60405180910390a250505050565b600660009054906101000a900460ff1615610587576040517f553ae05400000000000000000000000000000000000000000000000000000000815260040160405180910390fd5b6003600060029054906101000a900463ffffffff1663ffffffff16036105d9576040517ffd72ae9700000000000000000000000000000000000000000000000000000000815260040160405180910390fd5b60003411610613576040517f356680b700000000000000000000000000000000000000000000000000000000815260040160405180910390fd5b6000600a60003373ffffffffffffffffffffffffffffffffffffffff1673ffffffffffffffffffffffffffffffffffffffff16815260200190815260200160002054036106d85760016002600082825461066d919061291f565b925050819055506009339080600181540180825580915050600190039060005260206000200160009091909190916101000a81548173ffffffffffffffffffffffffffffffffffffffff021916908373ffffffffffffffffffffffffffffffffffffffff1602179055505b34600c60003373ffffffffffffffffffffffffffffffffffffffff1673ffffffffffffffffffffffffffffffffffffffff1681526020019081526020016000206000828254610727919061291f565b9250508190555034600a60003373ffffffffffffffffffffffffffffffffffffffff1673ffffffffffffffffffffffffffffffffffffffff168152602001908152602001600020600082825461077d919061291f565b925050819055503460016000828254610796919061291f565b925050819055503373ffffffffffffffffffffffffffffffffffffffff167fd143b3fca8f81682799e935736170faff446dc630e9babfdc72e4ae53c181a26346040516107e39190611c27565b60405180910390a2565b600660009054906101000a900460ff1615610834576040517f553ae05400000000000000000000000000000000000000000000000000000000815260040160405180910390fd5b600754421015610870576040517f2677ae4c00000000000000000000000000000000000000000000000000000000815260040160405180910390fd5b600354600154106108ad576040517f4fbf92cf00000000000000000000000000000000000000000000000000000000815260040160405180910390fd5b600860009054906101000a900460ff16156108f4576040517f36df8db700000000000000000000000000000000000000000000000000000000815260040160405180910390fd5b6001600860006101000a81548160ff0219169083151502179055507f92b0be06ad22b518afba60dd9e0986104041a2929e6094e9ff6cc6418e990cae60405160405180910390a16000600980549050905060005b81811015610ba75760006009828154811061096657610965612953565b5b9060005260206000200160009054906101000a900473ffffffffffffffffffffffffffffffffffffffff169050600d60008273ffffffffffffffffffffffffffffffffffffffff1673ffffffffffffffffffffffffffffffffffffffff16815260200190815260200160002060009054906101000a900460ff16610b95576001600d60008373ffffffffffffffffffffffffffffffffffffffff1673ffffffffffffffffffffffffffffffffffffffff16815260200190815260200160002060006101000a81548160ff0219169083151502179055506000600c60008373ffffffffffffffffffffffffffffffffffffffff1673ffffffffffffffffffffffffffffffffffffffff1681526020019081526020016000205490506000600c60008473ffffffffffffffffffffffffffffffffffffffff1673ffffffffffffffffffffffffffffffffffffffff1681526020019081526020016000208190555060008273ffffffffffffffffffffffffffffffffffffffff1682604051610aeb906129b3565b60006040518083038185875af1925050503d8060008114610b28576040519150601f19603f3d011682016040523d82523d6000602084013e610b2d565b606091505b505090508015610b53576001600660006101000a81548160ff0219169083151502179055505b80610b92577faf73b0b217208b61be286bbc37095bce7eb8b9ccf617244c2f0f154e8e04e3ff8383604051610b899291906129c8565b60405180910390a15b50505b5080610ba0906129f1565b9050610948565b50505050565b600754421015610be9576040517f2677ae4c00000000000000000000000000000000000000000000000000000000815260040160405180910390fd5b6000600b60008363ffffffff1681526020019081526020016000209050600280811115610c1957610c186121a8565b5b8160030160009054906101000a900460ff166002811115610c3d57610c3c6121a8565b5b14610c74576040517f474489de00000000000000000000000000000000000000000000000000000000815260040160405180910390fd5b6000600a60003373ffffffffffffffffffffffffffffffffffffffff1673ffffffffffffffffffffffffffffffffffffffff1681526020019081526020016000205403610ced576040517f4862d81300000000000000000000000000000000000000000000000000000000815260040160405180910390fd5b60005b8160040180549050811015610db8573373ffffffffffffffffffffffffffffffffffffffff16826004018281548110610d2c57610d2b612953565b5b9060005260206000200160000160009054906101000a900473ffffffffffffffffffffffffffffffffffffffff1673ffffffffffffffffffffffffffffffffffffffff1603610da7576040517f7c9a1cf900000000000000000000000000000000000000000000000000000000815260040160405180910390fd5b80610db1906129f1565b9050610cf0565b508060040160405180604001604052803373ffffffffffffffffffffffffffffffffffffffff1681526020018515158152509080600181540180825580915050600190039060005260206000200160009091909190915060008201518160000160006101000a81548173ffffffffffffffffffffffffffffffffffffffff021916908373ffffffffffffffffffffffffffffffffffffffff16021790555060208201518160000160146101000a81548160ff02191690831515021790555050507e84851059a1f0cd038f2bf027e1b58425f3c38ba25232f7b384014b78ea1b69823385604051610eaa93929190612a39565b60405180910390a1505050565b60008060019054906101000a900460ff16159050808015610ee85750600160008054906101000a900460ff1660ff16105b80610f155750610ef730611abc565b158015610f145750600160008054906101000a900460ff1660ff16145b5b610f54576040517f08c379a0000000000000000000000000000000000000000000000000000000008152600401610f4b90612ae2565b60405180910390fd5b60016000806101000a81548160ff021916908360ff1602179055508015610f91576001600060016101000a81548160ff0219169083151502179055505b60008211610fcb576040517f7616640100000000000000000000000000000000000000000000000000000000815260040160405180910390fd5b32600660016101000a81548173ffffffffffffffffffffffffffffffffffffffff021916908373ffffffffffffffffffffffffffffffffffffffff16021790555084846005918261101d929190612b0d565b5082600381905550816004819055508142611038919061291f565b60078190555080156110975760008060016101000a81548160ff0219169083151502179055507f7f26b83ff96e1f2b6a682f133852f6798a09c465da95921460cefb3847402498600160405161108e9190612c25565b60405180910390a15b5050505050565b600b6020528060005260406000206000915090508060000180546110c190612641565b80601f01602080910402602001604051908101604052809291908181526020018280546110ed90612641565b801561113a5780601f1061110f5761010080835404028352916020019161113a565b820191906000526020600020905b81548152906001019060200180831161111d57829003601f168201915b5050505050908060010160009054906101000a900460ff16908060020154908060030160009054906101000a900460ff16905084565b611178611b79565b600b60008363ffffffff1681526020019081526020016000206040518060a00160405290816000820180546111ac90612641565b80601f01602080910402602001604051908101604052809291908181526020018280546111d890612641565b80156112255780601f106111fa57610100808354040283529160200191611225565b820191906000526020600020905b81548152906001019060200180831161120857829003601f168201915b505050505081526020016001820160009054906101000a900460ff16151515158152602001600282015481526020016003820160009054906101000a900460ff166002811115611278576112776121a8565b5b600281111561128a576112896121a8565b5b815260200160048201805480602002602001604051908101604052809291908181526020016000905b82821015611352578382906000526020600020016040518060400160405290816000820160009054906101000a900473ffffffffffffffffffffffffffffffffffffffff1673ffffffffffffffffffffffffffffffffffffffff1673ffffffffffffffffffffffffffffffffffffffff1681526020016000820160149054906101000a900460ff161515151581525050815260200190600101906112b3565b50505050815250509050919050565b6000806000606060008060008060006060600660019054906101000a900473ffffffffffffffffffffffffffffffffffffffff166004546003546005600254600154600660009054906101000a900460ff16600060029054906101000a900463ffffffff164760098680546113d590612641565b80601f016020809104026020016040519081016040528092919081815260200182805461140190612641565b801561144e5780601f106114235761010080835404028352916020019161144e565b820191906000526020600020905b81548152906001019060200180831161143157829003601f168201915b50505050509650808054806020026020016040519081016040528092919081815260200182805480156114d657602002820191906000526020600020905b8160009054906101000a900473ffffffffffffffffffffffffffffffffffffffff1673ffffffffffffffffffffffffffffffffffffffff168152602001906001019080831161148c575b50505050509050995099509950995099509950995099509950995090919293949596979899565b600660019054906101000a900473ffffffffffffffffffffffffffffffffffffffff1673ffffffffffffffffffffffffffffffffffffffff163373ffffffffffffffffffffffffffffffffffffffff1614611584576040517f30cd747100000000000000000000000000000000000000000000000000000000815260040160405180910390fd5b6007544210156115c0576040517f2677ae4c00000000000000000000000000000000000000000000000000000000815260040160405180910390fd5b6000600b60008363ffffffff16815260200190815260200160002090508060020154421161161a576040517f9a99d1be00000000000000000000000000000000000000000000000000000000815260040160405180910390fd5b60028081111561162d5761162c6121a8565b5b8160030160009054906101000a900460ff166002811115611651576116506121a8565b5b14611688576040517f474489de00000000000000000000000000000000000000000000000000000000815260040160405180910390fd5b60008061175a83600401805480602002602001604051908101604052809291908181526020016000905b82821015611751578382906000526020600020016040518060400160405290816000820160009054906101000a900473ffffffffffffffffffffffffffffffffffffffff1673ffffffffffffffffffffffffffffffffffffffff1673ffffffffffffffffffffffffffffffffffffffff1681526020016000820160149054906101000a900460ff161515151581525050815260200190600101906116b2565b50505050611adf565b915091506000670de0b6b3a7640000826002546117779190612c40565b6117819190612c74565b905060006003670de0b6b3a7640000600254600261179f9190612c74565b6117a99190612c74565b6117b39190612ce5565b9050808210611a4d5760018560010160006101000a81548160ff0219169083151502179055506000600281819054906101000a900463ffffffff16809291906117fb90612d16565b91906101000a81548163ffffffff021916908363ffffffff1602179055505060008560030160006101000a81548160ff02191690836002811115611842576118416121a8565b5b0217905550600047905060008103611886576040517f356680b700000000000000000000000000000000000000000000000000000000815260040160405180910390fd5b60006001600060029054906101000a900463ffffffff1663ffffffff16036118bc576003826118b59190612ce5565b9050611910565b6002600060029054906101000a900463ffffffff1663ffffffff16036118f0576002826118e99190612ce5565b905061190f565b8190506001600660006101000a81548160ff0219169083151502179055505b5b6000600660019054906101000a900473ffffffffffffffffffffffffffffffffffffffff1673ffffffffffffffffffffffffffffffffffffffff1682604051611958906129b3565b60006040518083038185875af1925050503d8060008114611995576040519150601f19603f3d011682016040523d82523d6000602084013e61199a565b606091505b50509050806119d5576040517f27fcd9d100000000000000000000000000000000000000000000000000000000815260040160405180910390fd5b600660019054906101000a900473ffffffffffffffffffffffffffffffffffffffff1673ffffffffffffffffffffffffffffffffffffffff167feaff4b37086828766ad3268786972c0cd24259d4c87a80f9d3963a3c3d999b0d83604051611a3d9190611c27565b60405180910390a2505050611ab4565b60018560030160006101000a81548160ff02191690836002811115611a7557611a746121a8565b5b02179055507f4e2fd11f84344693b41d2aba9910e33b34a4f02d4d3a65b65b2201f3c8fa3c898484604051611aab929190612d42565b60405180910390a15b505050505050565b6000808273ffffffffffffffffffffffffffffffffffffffff163b119050919050565b60008060008060005b8551811015611b4a5760011515868281518110611b0857611b07612953565b5b602002602001015160200151151503611b2c5782611b25906129f1565b9250611b39565b81611b36906129f1565b91505b80611b43906129f1565b9050611ae8565b828294509450505050915091565b5080546000825590600052602060002090810190611b769190611bbc565b50565b6040518060a00160405280606081526020016000151581526020016000815260200160006002811115611baf57611bae6121a8565b5b8152602001606081525090565b5b80821115611c0a57600080820160006101000a81549073ffffffffffffffffffffffffffffffffffffffff02191690556000820160146101000a81549060ff021916905550600101611bbd565b5090565b6000819050919050565b611c2181611c0e565b82525050565b6000602082019050611c3c6000830184611c18565b92915050565b6000604051905090565b600080fd5b600080fd5b600073ffffffffffffffffffffffffffffffffffffffff82169050919050565b6000611c8182611c56565b9050919050565b611c9181611c76565b8114611c9c57600080fd5b50565b600081359050611cae81611c88565b92915050565b600060208284031215611cca57611cc9611c4c565b5b6000611cd884828501611c9f565b91505092915050565b600080fd5b600080fd5b6000601f19601f8301169050919050565b7f4e487b7100000000000000000000000000000000000000000000000000000000600052604160045260246000fd5b611d3482611ceb565b810181811067ffffffffffffffff82111715611d5357611d52611cfc565b5b80604052505050565b6000611d66611c42565b9050611d728282611d2b565b919050565b600067ffffffffffffffff821115611d9257611d91611cfc565b5b611d9b82611ceb565b9050602081019050919050565b82818337600083830152505050565b6000611dca611dc584611d77565b611d5c565b905082815260208101848484011115611de657611de5611ce6565b5b611df1848285611da8565b509392505050565b600082601f830112611e0e57611e0d611ce1565b5b8135611e1e848260208601611db7565b91505092915050565b611e3081611c0e565b8114611e3b57600080fd5b50565b600081359050611e4d81611e27565b92915050565b600063ffffffff82169050919050565b611e6c81611e53565b8114611e7757600080fd5b50565b600081359050611e8981611e63565b92915050565b600080600060608486031215611ea857611ea7611c4c565b5b600084013567ffffffffffffffff811115611ec657611ec5611c51565b5b611ed286828701611df9565b9350506020611ee386828701611e3e565b9250506040611ef486828701611e7a565b9150509250925092565b600080fd5b600080fd5b60008083601f840112611f1e57611f1d611ce1565b5b8235905067ffffffffffffffff811115611f3b57611f3a611efe565b5b602083019150836001820283011115611f5757611f56611f03565b5b9250929050565b60008060208385031215611f7557611f74611c4c565b5b600083013567ffffffffffffffff811115611f9357611f92611c51565b5b611f9f85828601611f08565b92509250509250929050565b60008115159050919050565b611fc081611fab565b8114611fcb57600080fd5b50565b600081359050611fdd81611fb7565b92915050565b60008060408385031215611ffa57611ff9611c4c565b5b600061200885828601611fce565b925050602061201985828601611e7a565b9150509250929050565b60008083601f84011261203957612038611ce1565b5b8235905067ffffffffffffffff81111561205657612055611efe565b5b60208301915083600182028301111561207257612071611f03565b5b9250929050565b6000806000806060858703121561209357612092611c4c565b5b600085013567ffffffffffffffff8111156120b1576120b0611c51565b5b6120bd87828801612023565b945094505060206120d087828801611e3e565b92505060406120e187828801611e3e565b91505092959194509250565b60006020828403121561210357612102611c4c565b5b600061211184828501611e3e565b91505092915050565b600081519050919050565b600082825260208201905092915050565b60005b83811015612154578082015181840152602081019050612139565b60008484015250505050565b600061216b8261211a565b6121758185612125565b9350612185818560208601612136565b61218e81611ceb565b840191505092915050565b6121a281611fab565b82525050565b7f4e487b7100000000000000000000000000000000000000000000000000000000600052602160045260246000fd5b600381106121e8576121e76121a8565b5b50565b60008190506121f9826121d7565b919050565b6000612209826121eb565b9050919050565b612219816121fe565b82525050565b600060808201905081810360008301526122398187612160565b90506122486020830186612199565b6122556040830185611c18565b6122626060830184612210565b95945050505050565b60006020828403121561228157612280611c4c565b5b600061228f84828501611e7a565b91505092915050565b600082825260208201905092915050565b60006122b48261211a565b6122be8185612298565b93506122ce818560208601612136565b6122d781611ceb565b840191505092915050565b6122eb81611fab565b82525050565b6122fa81611c0e565b82525050565b612309816121fe565b82525050565b600081519050919050565b600082825260208201905092915050565b6000819050602082019050919050565b61234481611c76565b82525050565b604082016000820151612360600085018261233b565b50602082015161237360208501826122e2565b50505050565b6000612385838361234a565b60408301905092915050565b6000602082019050919050565b60006123a98261230f565b6123b3818561231a565b93506123be8361232b565b8060005b838110156123ef5781516123d68882612379565b97506123e183612391565b9250506001810190506123c2565b5085935050505092915050565b600060a083016000830151848203600086015261241982826122a9565b915050602083015161242e60208601826122e2565b50604083015161244160408601826122f1565b5060608301516124546060860182612300565b506080830151848203608086015261246c828261239e565b9150508091505092915050565b6000602082019050818103600083015261249381846123fc565b905092915050565b6124a481611c76565b82525050565b6124b381611e53565b82525050565b600081519050919050565b600082825260208201905092915050565b6000819050602082019050919050565b60006124f1838361233b565b60208301905092915050565b6000602082019050919050565b6000612515826124b9565b61251f81856124c4565b935061252a836124d5565b8060005b8381101561255b57815161254288826124e5565b975061254d836124fd565b92505060018101905061252e565b5085935050505092915050565b60006101408201905061257e600083018d61249b565b61258b602083018c611c18565b612598604083018b611c18565b81810360608301526125aa818a612160565b90506125b96080830189611c18565b6125c660a0830188611c18565b6125d360c0830187612199565b6125e060e08301866124aa565b6125ee610100830185611c18565b818103610120830152612601818461250a565b90509b9a5050505050505050505050565b7f4e487b7100000000000000000000000000000000000000000000000000000000600052602260045260246000fd5b6000600282049050600182168061265957607f821691505b60208210810361266c5761266b612612565b5b50919050565b60008190508160005260206000209050919050565b60006020601f8301049050919050565b600082821b905092915050565b6000600883026126d47fffffffffffffffffffffffffffffffffffffffffffffffffffffffffffffffff82612697565b6126de8683612697565b95508019841693508086168417925050509392505050565b6000819050919050565b600061271b61271661271184611c0e565b6126f6565b611c0e565b9050919050565b6000819050919050565b61273583612700565b61274961274182612722565b8484546126a4565b825550505050565b600090565b61275e612751565b61276981848461272c565b505050565b5b8181101561278d57612782600082612756565b60018101905061276f565b5050565b601f8211156127d2576127a381612672565b6127ac84612687565b810160208510156127bb578190505b6127cf6127c785612687565b83018261276e565b50505b505050565b600082821c905092915050565b60006127f5600019846008026127d7565b1980831691505092915050565b600061280e83836127e4565b9150826002028217905092915050565b6128278261211a565b67ffffffffffffffff8111156128405761283f611cfc565b5b61284a8254612641565b612855828285612791565b600060209050601f8311600181146128885760008415612876578287015190505b6128808582612802565b8655506128e8565b601f19841661289686612672565b60005b828110156128be57848901518255600182019150602085019450602081019050612899565b868310156128db57848901516128d7601f8916826127e4565b8355505b6001600288020188555050505b505050505050565b7f4e487b7100000000000000000000000000000000000000000000000000000000600052601160045260246000fd5b600061292a82611c0e565b915061293583611c0e565b925082820190508082111561294d5761294c6128f0565b5b92915050565b7f4e487b7100000000000000000000000000000000000000000000000000000000600052603260045260246000fd5b600081905092915050565b50565b600061299d600083612982565b91506129a88261298d565b600082019050919050565b60006129be82612990565b9150819050919050565b60006040820190506129dd600083018561249b565b6129ea6020830184611c18565b9392505050565b60006129fc82611c0e565b91507fffffffffffffffffffffffffffffffffffffffffffffffffffffffffffffffff8203612a2e57612a2d6128f0565b5b600182019050919050565b6000606082019050612a4e60008301866124aa565b612a5b602083018561249b565b612a686040830184612199565b949350505050565b7f496e697469616c697a61626c653a20636f6e747261637420697320616c72656160008201527f647920696e697469616c697a6564000000000000000000000000000000000000602082015250565b6000612acc602e83612125565b9150612ad782612a70565b604082019050919050565b60006020820190508181036000830152612afb81612abf565b9050919050565b600082905092915050565b612b178383612b02565b67ffffffffffffffff811115612b3057612b2f611cfc565b5b612b3a8254612641565b612b45828285612791565b6000601f831160018114612b745760008415612b62578287013590505b612b6c8582612802565b865550612bd4565b601f198416612b8286612672565b60005b82811015612baa57848901358255600182019150602085019450602081019050612b85565b86831015612bc75784890135612bc3601f8916826127e4565b8355505b6001600288020188555050505b50505050505050565b6000819050919050565b600060ff82169050919050565b6000612c0f612c0a612c0584612bdd565b6126f6565b612be7565b9050919050565b612c1f81612bf4565b82525050565b6000602082019050612c3a6000830184612c16565b92915050565b6000612c4b82611c0e565b9150612c5683611c0e565b9250828203905081811115612c6e57612c6d6128f0565b5b92915050565b6000612c7f82611c0e565b9150612c8a83611c0e565b9250828202612c9881611c0e565b91508282048414831517612caf57612cae6128f0565b5b5092915050565b7f4e487b7100000000000000000000000000000000000000000000000000000000600052601260045260246000fd5b6000612cf082611c0e565b9150612cfb83611c0e565b925082612d0b57612d0a612cb6565b5b828204905092915050565b6000612d2182611e53565b915063ffffffff8203612d3757612d366128f0565b5b600182019050919050565b6000604082019050612d576000830185611c18565b612d646020830184611c18565b939250505056fea26469706673582212203a7ee388d372bda12ea9dfada4865df4694a5ca6f5295b4559f6f89fbf8fc81164736f6c63430008130033",
  "linkReferences": {},
  "deployedLinkReferences": {}
}