{
  "_format": "hh-sol-artifact-1",
  "contractName": "CrowdFundingContract",
  "sourceName": "contracts/CrowdFundingContract.sol",
  "abi": [
    {
      "inputs": [],
      "name": "AlreadyVoted",
      "type": "error"
    },
    {
      "inputs": [],
      "name": "CampaignEnded",
      "type": "error"
    },
    {
      "inputs": [],
      "name": "Completed_3_Milestones",
      "type": "error"
    },
    {
      "inputs": [],
      "name": "FundingGoalReached",
      "type": "error"
    },
    {
      "inputs": [],
      "name": "FundingPeriodStillOn",
      "type": "error"
    },
    {
      "inputs": [],
      "name": "InsufficientFunds",
      "type": "error"
    },
    {
      "inputs": [],
      "name": "InvalidDuration",
      "type": "error"
    },
    {
      "inputs": [],
      "name": "MilestoneNotPending",
      "type": "error"
    },
    {
      "inputs": [],
      "name": "MilestonePending",
      "type": "error"
    },
    {
      "inputs": [],
      "name": "NotADonor",
      "type": "error"
    },
    {
      "inputs": [],
      "name": "NotOwner",
      "type": "error"
    },
    {
      "inputs": [],
      "name": "RefundAlreadyInitiated",
      "type": "error"
    },
    {
      "inputs": [],
      "name": "RefundDeclined",
      "type": "error"
    },
    {
      "inputs": [],
      "name": "VotingStillOn",
      "type": "error"
    },
    {
      "inputs": [],
      "name": "WithdrawalFailed",
      "type": "error"
    },
    {
      "anonymous": false,
      "inputs": [
        {
          "indexed": true,
          "internalType": "address",
          "name": "donor",
          "type": "address"
        },
        {
          "indexed": false,
          "internalType": "uint256",
          "name": "amount",
          "type": "uint256"
        }
      ],
      "name": "FundsDonated",
      "type": "event"
    },
    {
      "anonymous": false,
      "inputs": [
        {
          "indexed": true,
          "internalType": "address",
          "name": "owner",
          "type": "address"
        },
        {
          "indexed": false,
          "internalType": "uint256",
          "name": "amount",
          "type": "uint256"
        }
      ],
      "name": "FundsWithdrawn",
      "type": "event"
    },
    {
      "anonymous": false,
      "inputs": [
        {
          "indexed": false,
          "internalType": "uint8",
          "name": "version",
          "type": "uint8"
        }
      ],
      "name": "Initialized",
      "type": "event"
    },
    {
      "anonymous": false,
      "inputs": [
        {
          "indexed": true,
          "internalType": "address",
          "name": "owner",
          "type": "address"
        },
        {
          "indexed": false,
          "internalType": "uint256",
          "name": "period",
          "type": "uint256"
        }
      ],
      "name": "MilestoneCreated",
      "type": "event"
    },
    {
      "anonymous": false,
      "inputs": [
        {
          "indexed": false,
          "internalType": "uint256",
          "name": "yesvote",
          "type": "uint256"
        },
        {
          "indexed": false,
          "internalType": "uint256",
          "name": "novote",
          "type": "uint256"
        }
      ],
      "name": "MilestoneRejected",
      "type": "event"
    },
    {
      "anonymous": false,
      "inputs": [
        {
          "indexed": false,
          "internalType": "uint32",
          "name": "milestoneCounter",
          "type": "uint32"
        },
        {
          "indexed": false,
          "internalType": "address",
          "name": "voter",
          "type": "address"
        },
        {
          "indexed": false,
          "internalType": "bool",
          "name": "vote",
          "type": "bool"
        }
      ],
      "name": "MilestoneVoted",
      "type": "event"
    },
    {
      "anonymous": false,
      "inputs": [
        {
          "indexed": false,
          "internalType": "address",
          "name": "donor",
          "type": "address"
        },
        {
          "indexed": false,
          "internalType": "uint256",
          "name": "amount",
          "type": "uint256"
        }
      ],
      "name": "RefundFailed",
      "type": "event"
    },
    {
      "anonymous": false,
      "inputs": [],
      "name": "RefundInitiated",
      "type": "event"
    },
    {
      "inputs": [
        {
          "internalType": "string",
          "name": "milestoneCID",
          "type": "string"
        },
        {
          "internalType": "uint256",
          "name": "votingPeriod",
          "type": "uint256"
        }
      ],
      "name": "createNewMilestone",
      "outputs": [],
      "stateMutability": "nonpayable",
      "type": "function"
    },
    {
      "inputs": [],
      "name": "etherBalance",
      "outputs": [
        {
          "internalType": "uint256",
          "name": "",
          "type": "uint256"
        }
      ],
      "stateMutability": "view",
      "type": "function"
    },
    {
      "inputs": [],
      "name": "getCampaignInfo",
      "outputs": [
        {
          "internalType": "address",
          "name": "",
          "type": "address"
        },
        {
          "internalType": "uint256",
          "name": "",
          "type": "uint256"
        },
        {
          "internalType": "uint256",
          "name": "",
          "type": "uint256"
        },
        {
          "internalType": "string",
          "name": "",
          "type": "string"
        },
        {
          "internalType": "uint256",
          "name": "",
          "type": "uint256"
        },
        {
          "internalType": "uint256",
          "name": "",
          "type": "uint256"
        },
        {
          "components": [
            {
              "internalType": "string",
              "name": "milestoneCID",
              "type": "string"
            },
            {
              "internalType": "bool",
              "name": "approved",
              "type": "bool"
            },
            {
              "internalType": "uint256",
              "name": "votingPeriod",
              "type": "uint256"
            },
            {
              "internalType": "enum CrowdFundingContract.MilestoneStatus",
              "name": "status",
              "type": "uint8"
            },
            {
              "components": [
                {
                  "internalType": "address",
                  "name": "donorAddress",
                  "type": "address"
                },
                {
                  "internalType": "bool",
                  "name": "vote",
                  "type": "bool"
                }
              ],
              "internalType": "struct CrowdFundingContract.MilestoneVote[]",
              "name": "votes",
              "type": "tuple[]"
            }
          ],
          "internalType": "struct CrowdFundingContract.Milestone",
          "name": "",
          "type": "tuple"
        },
        {
          "internalType": "bool",
          "name": "",
          "type": "bool"
        },
        {
          "internalType": "uint32",
          "name": "",
          "type": "uint32"
        },
        {
          "internalType": "uint256",
          "name": "",
          "type": "uint256"
        }
      ],
      "stateMutability": "view",
      "type": "function"
    },
    {
      "inputs": [
        {
          "internalType": "string",
          "name": "_fundingCId",
          "type": "string"
        },
        {
          "internalType": "uint256",
          "name": "_amount",
          "type": "uint256"
        },
        {
          "internalType": "uint256",
          "name": "_duration",
          "type": "uint256"
        }
      ],
      "name": "initialize",
      "outputs": [],
      "stateMutability": "nonpayable",
      "type": "function"
    },
    {
      "inputs": [],
      "name": "makeDonation",
      "outputs": [],
      "stateMutability": "payable",
      "type": "function"
    },
    {
      "inputs": [
        {
          "internalType": "bytes",
          "name": "",
          "type": "bytes"
        }
      ],
      "name": "performUpkeep",
      "outputs": [],
      "stateMutability": "nonpayable",
      "type": "function"
    },
    {
      "inputs": [],
      "name": "refundTimestamp",
      "outputs": [
        {
          "internalType": "uint256",
          "name": "",
          "type": "uint256"
        }
      ],
      "stateMutability": "view",
      "type": "function"
    },
    {
      "inputs": [
        {
          "internalType": "address",
          "name": "",
          "type": "address"
        }
      ],
      "name": "s_donors",
      "outputs": [
        {
          "internalType": "uint256",
          "name": "",
          "type": "uint256"
        }
      ],
      "stateMutability": "view",
      "type": "function"
    },
    {
      "inputs": [
        {
          "internalType": "uint256",
          "name": "",
          "type": "uint256"
        }
      ],
      "name": "s_milestones",
      "outputs": [
        {
          "internalType": "string",
          "name": "milestoneCID",
          "type": "string"
        },
        {
          "internalType": "bool",
          "name": "approved",
          "type": "bool"
        },
        {
          "internalType": "uint256",
          "name": "votingPeriod",
          "type": "uint256"
        },
        {
          "internalType": "enum CrowdFundingContract.MilestoneStatus",
          "name": "status",
          "type": "uint8"
        }
      ],
      "stateMutability": "view",
      "type": "function"
    },
    {
      "inputs": [
        {
          "internalType": "bool",
          "name": "vote",
          "type": "bool"
        }
      ],
      "name": "voteOnMilestone",
      "outputs": [],
      "stateMutability": "nonpayable",
      "type": "function"
    },
    {
      "inputs": [],
      "name": "withdrawMilestone",
      "outputs": [],
      "stateMutability": "nonpayable",
      "type": "function"
    },
    {
      "stateMutability": "payable",
      "type": "receive"
    }
  ],
  "bytecode": "0x608060405234801561001057600080fd5b50612b4a806100206000396000f3fe6080604052600436106100a05760003560e01c8063977d08c011610064578063977d08c014610170578063a8f24df814610199578063ad66e52a146101d9578063ba53619314610204578063bf2928a61461022d578063d6290cd714610244576100a7565b80631f23d446146100ac5780632112c11d146100d757806340ea0a94146101145780634585e33b1461011e5780638e69246414610147576100a7565b366100a757005b600080fd5b3480156100b857600080fd5b506100c1610278565b6040516100ce9190611b20565b60405180910390f35b3480156100e357600080fd5b506100fe60048036038101906100f99190611bad565b61027e565b60405161010b9190611b20565b60405180910390f35b61011c610296565b005b34801561012a57600080fd5b5061014560048036038101906101409190611c3f565b610543565b005b34801561015357600080fd5b5061016e60048036038101906101699190611df9565b610903565b005b34801561017c57600080fd5b5061019760048036038101906101929190611eab565b610b9a565b005b3480156101a557600080fd5b506101c060048036038101906101bb9190611f1f565b610d81565b6040516101d0949392919061205d565b60405180910390f35b3480156101e557600080fd5b506101ee610e53565b6040516101fb9190611b20565b60405180910390f35b34801561021057600080fd5b5061022b600480360381019061022691906120d5565b610e5b565b005b34801561023957600080fd5b5061024261114b565b005b34801561025057600080fd5b5061025961171a565b60405161026f9a99989796959493929190612311565b60405180910390f35b60075481565b600a6020528060005260406000206000915090505481565b600660009054906101000a900460ff16156102dd576040517f553ae05400000000000000000000000000000000000000000000000000000000815260040160405180910390fd5b6003600060069054906101000a900463ffffffff1663ffffffff160361032f576040517ffd72ae9700000000000000000000000000000000000000000000000000000000815260040160405180910390fd5b60003411610369576040517f356680b700000000000000000000000000000000000000000000000000000000815260040160405180910390fd5b6000600a60003373ffffffffffffffffffffffffffffffffffffffff1673ffffffffffffffffffffffffffffffffffffffff168152602001908152602001600020540361042e576001600260008282546103c391906123ea565b925050819055506009339080600181540180825580915050600190039060005260206000200160009091909190916101000a81548173ffffffffffffffffffffffffffffffffffffffff021916908373ffffffffffffffffffffffffffffffffffffffff1602179055505b34600c60003373ffffffffffffffffffffffffffffffffffffffff1673ffffffffffffffffffffffffffffffffffffffff168152602001908152602001600020600082825461047d91906123ea565b9250508190555034600a60003373ffffffffffffffffffffffffffffffffffffffff1673ffffffffffffffffffffffffffffffffffffffff16815260200190815260200160002060008282546104d391906123ea565b9250508190555034600160008282546104ec91906123ea565b925050819055503373ffffffffffffffffffffffffffffffffffffffff167fd143b3fca8f81682799e935736170faff446dc630e9babfdc72e4ae53c181a26346040516105399190611b20565b60405180910390a2565b600660009054906101000a900460ff161561058a576040517f553ae05400000000000000000000000000000000000000000000000000000000815260040160405180910390fd5b6007544210156105c6576040517f4d50620b00000000000000000000000000000000000000000000000000000000815260040160405180910390fd5b60035460015410610603576040517f4fbf92cf00000000000000000000000000000000000000000000000000000000815260040160405180910390fd5b600860009054906101000a900460ff161561064a576040517f36df8db700000000000000000000000000000000000000000000000000000000815260040160405180910390fd5b6001600860006101000a81548160ff0219169083151502179055507f92b0be06ad22b518afba60dd9e0986104041a2929e6094e9ff6cc6418e990cae60405160405180910390a16000600980549050905060005b818110156108fd576000600982815481106106bc576106bb61241e565b5b9060005260206000200160009054906101000a900473ffffffffffffffffffffffffffffffffffffffff169050600d60008273ffffffffffffffffffffffffffffffffffffffff1673ffffffffffffffffffffffffffffffffffffffff16815260200190815260200160002060009054906101000a900460ff166108eb576001600d60008373ffffffffffffffffffffffffffffffffffffffff1673ffffffffffffffffffffffffffffffffffffffff16815260200190815260200160002060006101000a81548160ff0219169083151502179055506000600c60008373ffffffffffffffffffffffffffffffffffffffff1673ffffffffffffffffffffffffffffffffffffffff1681526020019081526020016000205490506000600c60008473ffffffffffffffffffffffffffffffffffffffff1673ffffffffffffffffffffffffffffffffffffffff1681526020019081526020016000208190555060008273ffffffffffffffffffffffffffffffffffffffff16826040516108419061247e565b60006040518083038185875af1925050503d806000811461087e576040519150601f19603f3d011682016040523d82523d6000602084013e610883565b606091505b5050905080156108a9576001600660006101000a81548160ff0219169083151502179055505b806108e8577faf73b0b217208b61be286bbc37095bce7eb8b9ccf617244c2f0f154e8e04e3ff83836040516108df929190612493565b60405180910390a15b50505b50806108f6906124bc565b905061069e565b50505050565b600660019054906101000a900473ffffffffffffffffffffffffffffffffffffffff1673ffffffffffffffffffffffffffffffffffffffff163373ffffffffffffffffffffffffffffffffffffffff161461098a576040517f30cd747100000000000000000000000000000000000000000000000000000000815260040160405180910390fd5b6003600060069054906101000a900463ffffffff1663ffffffff16036109dc576040517ffd72ae9700000000000000000000000000000000000000000000000000000000815260040160405180910390fd5b6002808111156109ef576109ee611fe6565b5b600b60008060029054906101000a900463ffffffff1663ffffffff16815260200190815260200160002060030160009054906101000a900460ff166002811115610a3c57610a3b611fe6565b5b03610a73576040517f1537a1e800000000000000000000000000000000000000000000000000000000815260040160405180910390fd5b6000600281819054906101000a900463ffffffff1680929190610a9590612504565b91906101000a81548163ffffffff021916908363ffffffff160217905550506000600b60008060029054906101000a900463ffffffff1663ffffffff168152602001908152602001600020905082816000019081610af3919061273c565b5060008160010160006101000a81548160ff02191690831515021790555081816002018190555060028160030160006101000a81548160ff02191690836002811115610b4257610b41611fe6565b5b02179055503373ffffffffffffffffffffffffffffffffffffffff167f0602e1ee094e5b9bca3008c6dc2b270c10b72e5ad44b52232b6ababb78d6d89e83604051610b8d9190611b20565b60405180910390a2505050565b60008060019054906101000a900460ff16159050808015610bcb5750600160008054906101000a900460ff1660ff16105b80610bf85750610bda30611a28565b158015610bf75750600160008054906101000a900460ff1660ff16145b5b610c37576040517f08c379a0000000000000000000000000000000000000000000000000000000008152600401610c2e90612880565b60405180910390fd5b60016000806101000a81548160ff021916908360ff1602179055508015610c74576001600060016101000a81548160ff0219169083151502179055505b60008211610cae576040517f7616640100000000000000000000000000000000000000000000000000000000815260040160405180910390fd5b32600660016101000a81548173ffffffffffffffffffffffffffffffffffffffff021916908373ffffffffffffffffffffffffffffffffffffffff160217905550848460059182610d009291906128ab565b5082600381905550816004819055508142610d1b91906123ea565b6007819055508015610d7a5760008060016101000a81548160ff0219169083151502179055507f7f26b83ff96e1f2b6a682f133852f6798a09c465da95921460cefb38474024986001604051610d7191906129c3565b60405180910390a15b5050505050565b600b602052806000526040600020600091509050806000018054610da49061255f565b80601f0160208091040260200160405190810160405280929190818152602001828054610dd09061255f565b8015610e1d5780601f10610df257610100808354040283529160200191610e1d565b820191906000526020600020905b815481529060010190602001808311610e0057829003601f168201915b5050505050908060010160009054906101000a900460ff16908060020154908060030160009054906101000a900460ff16905084565b600047905090565b6000600b60008060029054906101000a900463ffffffff1663ffffffff1681526020019081526020016000209050600280811115610e9c57610e9b611fe6565b5b8160030160009054906101000a900460ff166002811115610ec057610ebf611fe6565b5b14610ef7576040517f474489de00000000000000000000000000000000000000000000000000000000815260040160405180910390fd5b6000600a60003373ffffffffffffffffffffffffffffffffffffffff1673ffffffffffffffffffffffffffffffffffffffff1681526020019081526020016000205403610f70576040517f4862d81300000000000000000000000000000000000000000000000000000000815260040160405180910390fd5b60005b816004018054905081101561103b573373ffffffffffffffffffffffffffffffffffffffff16826004018281548110610faf57610fae61241e565b5b9060005260206000200160000160009054906101000a900473ffffffffffffffffffffffffffffffffffffffff1673ffffffffffffffffffffffffffffffffffffffff160361102a576040517f7c9a1cf900000000000000000000000000000000000000000000000000000000815260040160405180910390fd5b80611034906124bc565b9050610f73565b508060040160405180604001604052803373ffffffffffffffffffffffffffffffffffffffff1681526020018415158152509080600181540180825580915050600190039060005260206000200160009091909190915060008201518160000160006101000a81548173ffffffffffffffffffffffffffffffffffffffff021916908373ffffffffffffffffffffffffffffffffffffffff16021790555060208201518160000160146101000a81548160ff02191690831515021790555050507e84851059a1f0cd038f2bf027e1b58425f3c38ba25232f7b384014b78ea1b69600060029054906101000a900463ffffffff16338460405161113f939291906129de565b60405180910390a15050565b600660019054906101000a900473ffffffffffffffffffffffffffffffffffffffff1673ffffffffffffffffffffffffffffffffffffffff163373ffffffffffffffffffffffffffffffffffffffff16146111d2576040517f30cd747100000000000000000000000000000000000000000000000000000000815260040160405180910390fd5b6000600b60008060029054906101000a900463ffffffff1663ffffffff16815260200190815260200160002090508060020154421161123d576040517f9a99d1be00000000000000000000000000000000000000000000000000000000815260040160405180910390fd5b6002808111156112505761124f611fe6565b5b8160030160009054906101000a900460ff16600281111561127457611273611fe6565b5b146112ab576040517f474489de00000000000000000000000000000000000000000000000000000000815260040160405180910390fd5b6007544210156112e7576040517f2677ae4c00000000000000000000000000000000000000000000000000000000815260040160405180910390fd5b6000806113b983600401805480602002602001604051908101604052809291908181526020016000905b828210156113b0578382906000526020600020016040518060400160405290816000820160009054906101000a900473ffffffffffffffffffffffffffffffffffffffff1673ffffffffffffffffffffffffffffffffffffffff1673ffffffffffffffffffffffffffffffffffffffff1681526020016000820160149054906101000a900460ff16151515158152505081526020019060010190611311565b50505050611a4b565b915091506000670de0b6b3a7640000826002546113d69190612a15565b6113e09190612a49565b905060006003670de0b6b3a764000060025460026113fe9190612a49565b6114089190612a49565b6114129190612aba565b90508082106116ac5760018560010160006101000a81548160ff0219169083151502179055506000600681819054906101000a900463ffffffff168092919061145a90612504565b91906101000a81548163ffffffff021916908363ffffffff1602179055505060008560030160006101000a81548160ff021916908360028111156114a1576114a0611fe6565b5b02179055506000479050600081036114e5576040517f356680b700000000000000000000000000000000000000000000000000000000815260040160405180910390fd5b60006001600060069054906101000a900463ffffffff1663ffffffff160361151b576003826115149190612aba565b905061156f565b6002600060069054906101000a900463ffffffff1663ffffffff160361154f576002826115489190612aba565b905061156e565b8190506001600660006101000a81548160ff0219169083151502179055505b5b6000600660019054906101000a900473ffffffffffffffffffffffffffffffffffffffff1673ffffffffffffffffffffffffffffffffffffffff16826040516115b79061247e565b60006040518083038185875af1925050503d80600081146115f4576040519150601f19603f3d011682016040523d82523d6000602084013e6115f9565b606091505b5050905080611634576040517f27fcd9d100000000000000000000000000000000000000000000000000000000815260040160405180910390fd5b600660019054906101000a900473ffffffffffffffffffffffffffffffffffffffff1673ffffffffffffffffffffffffffffffffffffffff167feaff4b37086828766ad3268786972c0cd24259d4c87a80f9d3963a3c3d999b0d8360405161169c9190611b20565b60405180910390a2505050611713565b60018560030160006101000a81548160ff021916908360028111156116d4576116d3611fe6565b5b02179055507f4e2fd11f84344693b41d2aba9910e33b34a4f02d4d3a65b65b2201f3c8fa3c89848460405161170a929190612aeb565b60405180910390a15b5050505050565b6000806000606060008061172c611ac4565b6000806000600660019054906101000a900473ffffffffffffffffffffffffffffffffffffffff166004546003546005600254600154600b60008060029054906101000a900463ffffffff1663ffffffff168152602001908152602001600020600660009054906101000a900460ff16600060069054906101000a900463ffffffff16478680546117bc9061255f565b80601f01602080910402602001604051908101604052809291908181526020018280546117e89061255f565b80156118355780601f1061180a57610100808354040283529160200191611835565b820191906000526020600020905b81548152906001019060200180831161181857829003601f168201915b50505050509650836040518060a00160405290816000820180546118589061255f565b80601f01602080910402602001604051908101604052809291908181526020018280546118849061255f565b80156118d15780601f106118a6576101008083540402835291602001916118d1565b820191906000526020600020905b8154815290600101906020018083116118b457829003601f168201915b505050505081526020016001820160009054906101000a900460ff16151515158152602001600282015481526020016003820160009054906101000a900460ff16600281111561192457611923611fe6565b5b600281111561193657611935611fe6565b5b815260200160048201805480602002602001604051908101604052809291908181526020016000905b828210156119fe578382906000526020600020016040518060400160405290816000820160009054906101000a900473ffffffffffffffffffffffffffffffffffffffff1673ffffffffffffffffffffffffffffffffffffffff1673ffffffffffffffffffffffffffffffffffffffff1681526020016000820160149054906101000a900460ff1615151515815250508152602001906001019061195f565b50505050815250509350995099509950995099509950995099509950995090919293949596979899565b6000808273ffffffffffffffffffffffffffffffffffffffff163b119050919050565b60008060008060005b8551811015611ab65760011515868281518110611a7457611a7361241e565b5b602002602001015160200151151503611a985782611a91906124bc565b9250611aa5565b81611aa2906124bc565b91505b80611aaf906124bc565b9050611a54565b828294509450505050915091565b6040518060a00160405280606081526020016000151581526020016000815260200160006002811115611afa57611af9611fe6565b5b8152602001606081525090565b6000819050919050565b611b1a81611b07565b82525050565b6000602082019050611b356000830184611b11565b92915050565b6000604051905090565b600080fd5b600080fd5b600073ffffffffffffffffffffffffffffffffffffffff82169050919050565b6000611b7a82611b4f565b9050919050565b611b8a81611b6f565b8114611b9557600080fd5b50565b600081359050611ba781611b81565b92915050565b600060208284031215611bc357611bc2611b45565b5b6000611bd184828501611b98565b91505092915050565b600080fd5b600080fd5b600080fd5b60008083601f840112611bff57611bfe611bda565b5b8235905067ffffffffffffffff811115611c1c57611c1b611bdf565b5b602083019150836001820283011115611c3857611c37611be4565b5b9250929050565b60008060208385031215611c5657611c55611b45565b5b600083013567ffffffffffffffff811115611c7457611c73611b4a565b5b611c8085828601611be9565b92509250509250929050565b600080fd5b6000601f19601f8301169050919050565b7f4e487b7100000000000000000000000000000000000000000000000000000000600052604160045260246000fd5b611cda82611c91565b810181811067ffffffffffffffff82111715611cf957611cf8611ca2565b5b80604052505050565b6000611d0c611b3b565b9050611d188282611cd1565b919050565b600067ffffffffffffffff821115611d3857611d37611ca2565b5b611d4182611c91565b9050602081019050919050565b82818337600083830152505050565b6000611d70611d6b84611d1d565b611d02565b905082815260208101848484011115611d8c57611d8b611c8c565b5b611d97848285611d4e565b509392505050565b600082601f830112611db457611db3611bda565b5b8135611dc4848260208601611d5d565b91505092915050565b611dd681611b07565b8114611de157600080fd5b50565b600081359050611df381611dcd565b92915050565b60008060408385031215611e1057611e0f611b45565b5b600083013567ffffffffffffffff811115611e2e57611e2d611b4a565b5b611e3a85828601611d9f565b9250506020611e4b85828601611de4565b9150509250929050565b60008083601f840112611e6b57611e6a611bda565b5b8235905067ffffffffffffffff811115611e8857611e87611bdf565b5b602083019150836001820283011115611ea457611ea3611be4565b5b9250929050565b60008060008060608587031215611ec557611ec4611b45565b5b600085013567ffffffffffffffff811115611ee357611ee2611b4a565b5b611eef87828801611e55565b94509450506020611f0287828801611de4565b9250506040611f1387828801611de4565b91505092959194509250565b600060208284031215611f3557611f34611b45565b5b6000611f4384828501611de4565b91505092915050565b600081519050919050565b600082825260208201905092915050565b60005b83811015611f86578082015181840152602081019050611f6b565b60008484015250505050565b6000611f9d82611f4c565b611fa78185611f57565b9350611fb7818560208601611f68565b611fc081611c91565b840191505092915050565b60008115159050919050565b611fe081611fcb565b82525050565b7f4e487b7100000000000000000000000000000000000000000000000000000000600052602160045260246000fd5b6003811061202657612025611fe6565b5b50565b600081905061203782612015565b919050565b600061204782612029565b9050919050565b6120578161203c565b82525050565b600060808201905081810360008301526120778187611f92565b90506120866020830186611fd7565b6120936040830185611b11565b6120a0606083018461204e565b95945050505050565b6120b281611fcb565b81146120bd57600080fd5b50565b6000813590506120cf816120a9565b92915050565b6000602082840312156120eb576120ea611b45565b5b60006120f9848285016120c0565b91505092915050565b61210b81611b6f565b82525050565b600082825260208201905092915050565b600061212d82611f4c565b6121378185612111565b9350612147818560208601611f68565b61215081611c91565b840191505092915050565b61216481611fcb565b82525050565b61217381611b07565b82525050565b6121828161203c565b82525050565b600081519050919050565b600082825260208201905092915050565b6000819050602082019050919050565b6121bd81611b6f565b82525050565b6040820160008201516121d960008501826121b4565b5060208201516121ec602085018261215b565b50505050565b60006121fe83836121c3565b60408301905092915050565b6000602082019050919050565b600061222282612188565b61222c8185612193565b9350612237836121a4565b8060005b8381101561226857815161224f88826121f2565b975061225a8361220a565b92505060018101905061223b565b5085935050505092915050565b600060a08301600083015184820360008601526122928282612122565b91505060208301516122a7602086018261215b565b5060408301516122ba604086018261216a565b5060608301516122cd6060860182612179565b50608083015184820360808601526122e58282612217565b9150508091505092915050565b600063ffffffff82169050919050565b61230b816122f2565b82525050565b600061014082019050612327600083018d612102565b612334602083018c611b11565b612341604083018b611b11565b8181036060830152612353818a611f92565b90506123626080830189611b11565b61236f60a0830188611b11565b81810360c08301526123818187612275565b905061239060e0830186611fd7565b61239e610100830185612302565b6123ac610120830184611b11565b9b9a5050505050505050505050565b7f4e487b7100000000000000000000000000000000000000000000000000000000600052601160045260246000fd5b60006123f582611b07565b915061240083611b07565b9250828201905080821115612418576124176123bb565b5b92915050565b7f4e487b7100000000000000000000000000000000000000000000000000000000600052603260045260246000fd5b600081905092915050565b50565b600061246860008361244d565b915061247382612458565b600082019050919050565b60006124898261245b565b9150819050919050565b60006040820190506124a86000830185612102565b6124b56020830184611b11565b9392505050565b60006124c782611b07565b91507fffffffffffffffffffffffffffffffffffffffffffffffffffffffffffffffff82036124f9576124f86123bb565b5b600182019050919050565b600061250f826122f2565b915063ffffffff8203612525576125246123bb565b5b600182019050919050565b7f4e487b7100000000000000000000000000000000000000000000000000000000600052602260045260246000fd5b6000600282049050600182168061257757607f821691505b60208210810361258a57612589612530565b5b50919050565b60008190508160005260206000209050919050565b60006020601f8301049050919050565b600082821b905092915050565b6000600883026125f27fffffffffffffffffffffffffffffffffffffffffffffffffffffffffffffffff826125b5565b6125fc86836125b5565b95508019841693508086168417925050509392505050565b6000819050919050565b600061263961263461262f84611b07565b612614565b611b07565b9050919050565b6000819050919050565b6126538361261e565b61266761265f82612640565b8484546125c2565b825550505050565b600090565b61267c61266f565b61268781848461264a565b505050565b5b818110156126ab576126a0600082612674565b60018101905061268d565b5050565b601f8211156126f0576126c181612590565b6126ca846125a5565b810160208510156126d9578190505b6126ed6126e5856125a5565b83018261268c565b50505b505050565b600082821c905092915050565b6000612713600019846008026126f5565b1980831691505092915050565b600061272c8383612702565b9150826002028217905092915050565b61274582611f4c565b67ffffffffffffffff81111561275e5761275d611ca2565b5b612768825461255f565b6127738282856126af565b600060209050601f8311600181146127a65760008415612794578287015190505b61279e8582612720565b865550612806565b601f1984166127b486612590565b60005b828110156127dc578489015182556001820191506020850194506020810190506127b7565b868310156127f957848901516127f5601f891682612702565b8355505b6001600288020188555050505b505050505050565b7f496e697469616c697a61626c653a20636f6e747261637420697320616c72656160008201527f647920696e697469616c697a6564000000000000000000000000000000000000602082015250565b600061286a602e83611f57565b91506128758261280e565b604082019050919050565b600060208201905081810360008301526128998161285d565b9050919050565b600082905092915050565b6128b583836128a0565b67ffffffffffffffff8111156128ce576128cd611ca2565b5b6128d8825461255f565b6128e38282856126af565b6000601f8311600181146129125760008415612900578287013590505b61290a8582612720565b865550612972565b601f19841661292086612590565b60005b8281101561294857848901358255600182019150602085019450602081019050612923565b868310156129655784890135612961601f891682612702565b8355505b6001600288020188555050505b50505050505050565b6000819050919050565b600060ff82169050919050565b60006129ad6129a86129a38461297b565b612614565b612985565b9050919050565b6129bd81612992565b82525050565b60006020820190506129d860008301846129b4565b92915050565b60006060820190506129f36000830186612302565b612a006020830185612102565b612a0d6040830184611fd7565b949350505050565b6000612a2082611b07565b9150612a2b83611b07565b9250828203905081811115612a4357612a426123bb565b5b92915050565b6000612a5482611b07565b9150612a5f83611b07565b9250828202612a6d81611b07565b91508282048414831517612a8457612a836123bb565b5b5092915050565b7f4e487b7100000000000000000000000000000000000000000000000000000000600052601260045260246000fd5b6000612ac582611b07565b9150612ad083611b07565b925082612ae057612adf612a8b565b5b828204905092915050565b6000604082019050612b006000830185611b11565b612b0d6020830184611b11565b939250505056fea2646970667358221220fe57d83b32ee043e23256e9412522a78fc8115e52b44a5802e76d9a6e2890dbf64736f6c63430008130033",
  "linkReferences": {},
  "deployedLinkReferences": {}
}