{
  "_format": "hh-sol-artifact-1",
  "contractName": "CrowdFundingContract",
  "sourceName": "contracts/CrowdFundingContract.sol",
  "abi": [
    {
      "inputs": [],
      "name": "AlreadyVoted",
      "type": "error"
    },
    {
      "inputs": [],
      "name": "CampaignEnded",
      "type": "error"
    },
    {
      "inputs": [],
      "name": "Completed_3_Milestones",
      "type": "error"
    },
    {
      "inputs": [],
      "name": "FundingGoalReached",
      "type": "error"
    },
    {
      "inputs": [],
      "name": "FundingPeriodStillOn",
      "type": "error"
    },
    {
      "inputs": [],
      "name": "InsufficientFunds",
      "type": "error"
    },
    {
      "inputs": [],
      "name": "InvalidDuration",
      "type": "error"
    },
    {
      "inputs": [],
      "name": "MilestoneNotPending",
      "type": "error"
    },
    {
      "inputs": [],
      "name": "MilestonePending",
      "type": "error"
    },
    {
      "inputs": [],
      "name": "NotADonor",
      "type": "error"
    },
    {
      "inputs": [],
      "name": "NotOwner",
      "type": "error"
    },
    {
      "inputs": [],
      "name": "RefundAlreadyInitiated",
      "type": "error"
    },
    {
      "inputs": [],
      "name": "RefundDeclined",
      "type": "error"
    },
    {
      "inputs": [],
      "name": "VotingStillOn",
      "type": "error"
    },
    {
      "inputs": [],
      "name": "WithdrawalFailed",
      "type": "error"
    },
    {
      "anonymous": false,
      "inputs": [
        {
          "indexed": true,
          "internalType": "address",
          "name": "donor",
          "type": "address"
        },
        {
          "indexed": false,
          "internalType": "uint256",
          "name": "amount",
          "type": "uint256"
        }
      ],
      "name": "FundsDonated",
      "type": "event"
    },
    {
      "anonymous": false,
      "inputs": [
        {
          "indexed": true,
          "internalType": "address",
          "name": "owner",
          "type": "address"
        },
        {
          "indexed": false,
          "internalType": "uint256",
          "name": "amount",
          "type": "uint256"
        }
      ],
      "name": "FundsWithdrawn",
      "type": "event"
    },
    {
      "anonymous": false,
      "inputs": [
        {
          "indexed": false,
          "internalType": "uint8",
          "name": "version",
          "type": "uint8"
        }
      ],
      "name": "Initialized",
      "type": "event"
    },
    {
      "anonymous": false,
      "inputs": [
        {
          "indexed": true,
          "internalType": "address",
          "name": "owner",
          "type": "address"
        },
        {
          "indexed": false,
          "internalType": "uint256",
          "name": "period",
          "type": "uint256"
        }
      ],
      "name": "MilestoneCreated",
      "type": "event"
    },
    {
      "anonymous": false,
      "inputs": [
        {
          "indexed": false,
          "internalType": "uint256",
          "name": "yesvote",
          "type": "uint256"
        },
        {
          "indexed": false,
          "internalType": "uint256",
          "name": "novote",
          "type": "uint256"
        }
      ],
      "name": "MilestoneRejected",
      "type": "event"
    },
    {
      "anonymous": false,
      "inputs": [
        {
          "indexed": false,
          "internalType": "uint32",
          "name": "milestoneCounter",
          "type": "uint32"
        },
        {
          "indexed": false,
          "internalType": "address",
          "name": "voter",
          "type": "address"
        },
        {
          "indexed": false,
          "internalType": "bool",
          "name": "vote",
          "type": "bool"
        }
      ],
      "name": "MilestoneVoted",
      "type": "event"
    },
    {
      "anonymous": false,
      "inputs": [
        {
          "indexed": false,
          "internalType": "address",
          "name": "donor",
          "type": "address"
        },
        {
          "indexed": false,
          "internalType": "uint256",
          "name": "amount",
          "type": "uint256"
        }
      ],
      "name": "RefundFailed",
      "type": "event"
    },
    {
      "anonymous": false,
      "inputs": [],
      "name": "RefundInitiated",
      "type": "event"
    },
    {
      "inputs": [
        {
          "internalType": "string",
          "name": "milestoneCID",
          "type": "string"
        },
        {
          "internalType": "uint256",
          "name": "votingPeriod",
          "type": "uint256"
        }
      ],
      "name": "createNewMilestone",
      "outputs": [],
      "stateMutability": "nonpayable",
      "type": "function"
    },
    {
      "inputs": [],
      "name": "etherBalance",
      "outputs": [
        {
          "internalType": "uint256",
          "name": "",
          "type": "uint256"
        }
      ],
      "stateMutability": "view",
      "type": "function"
    },
    {
      "inputs": [],
      "name": "getCampaignInfo",
      "outputs": [
        {
          "internalType": "address",
          "name": "",
          "type": "address"
        },
        {
          "internalType": "uint256",
          "name": "",
          "type": "uint256"
        },
        {
          "internalType": "uint256",
          "name": "",
          "type": "uint256"
        },
        {
          "internalType": "string",
          "name": "",
          "type": "string"
        },
        {
          "internalType": "uint256",
          "name": "",
          "type": "uint256"
        },
        {
          "internalType": "uint256",
          "name": "",
          "type": "uint256"
        },
        {
          "components": [
            {
              "internalType": "string",
              "name": "milestoneCID",
              "type": "string"
            },
            {
              "internalType": "bool",
              "name": "approved",
              "type": "bool"
            },
            {
              "internalType": "uint256",
              "name": "votingPeriod",
              "type": "uint256"
            },
            {
              "internalType": "enum CrowdFundingContract.MilestoneStatus",
              "name": "status",
              "type": "uint8"
            },
            {
              "components": [
                {
                  "internalType": "address",
                  "name": "donorAddress",
                  "type": "address"
                },
                {
                  "internalType": "bool",
                  "name": "vote",
                  "type": "bool"
                }
              ],
              "internalType": "struct CrowdFundingContract.MilestoneVote[]",
              "name": "votes",
              "type": "tuple[]"
            }
          ],
          "internalType": "struct CrowdFundingContract.Milestone",
          "name": "",
          "type": "tuple"
        },
        {
          "internalType": "bool",
          "name": "",
          "type": "bool"
        }
      ],
      "stateMutability": "view",
      "type": "function"
    },
    {
      "inputs": [
        {
          "internalType": "string",
          "name": "_fundingCId",
          "type": "string"
        },
        {
          "internalType": "uint256",
          "name": "_amount",
          "type": "uint256"
        },
        {
          "internalType": "uint256",
          "name": "_duration",
          "type": "uint256"
        }
      ],
      "name": "initialize",
      "outputs": [],
      "stateMutability": "nonpayable",
      "type": "function"
    },
    {
      "inputs": [],
      "name": "makeDonation",
      "outputs": [],
      "stateMutability": "payable",
      "type": "function"
    },
    {
      "inputs": [
        {
          "internalType": "bytes",
          "name": "",
          "type": "bytes"
        }
      ],
      "name": "performUpkeep",
      "outputs": [],
      "stateMutability": "nonpayable",
      "type": "function"
    },
    {
      "inputs": [],
      "name": "refundTimestamp",
      "outputs": [
        {
          "internalType": "uint256",
          "name": "",
          "type": "uint256"
        }
      ],
      "stateMutability": "view",
      "type": "function"
    },
    {
      "inputs": [
        {
          "internalType": "address",
          "name": "",
          "type": "address"
        }
      ],
      "name": "s_donors",
      "outputs": [
        {
          "internalType": "uint256",
          "name": "",
          "type": "uint256"
        }
      ],
      "stateMutability": "view",
      "type": "function"
    },
    {
      "inputs": [
        {
          "internalType": "uint256",
          "name": "",
          "type": "uint256"
        }
      ],
      "name": "s_milestones",
      "outputs": [
        {
          "internalType": "string",
          "name": "milestoneCID",
          "type": "string"
        },
        {
          "internalType": "bool",
          "name": "approved",
          "type": "bool"
        },
        {
          "internalType": "uint256",
          "name": "votingPeriod",
          "type": "uint256"
        },
        {
          "internalType": "enum CrowdFundingContract.MilestoneStatus",
          "name": "status",
          "type": "uint8"
        }
      ],
      "stateMutability": "view",
      "type": "function"
    },
    {
      "inputs": [
        {
          "internalType": "bool",
          "name": "vote",
          "type": "bool"
        }
      ],
      "name": "voteOnMilestone",
      "outputs": [],
      "stateMutability": "nonpayable",
      "type": "function"
    },
    {
      "inputs": [],
      "name": "withdrawMilestone",
      "outputs": [],
      "stateMutability": "nonpayable",
      "type": "function"
    },
    {
      "stateMutability": "payable",
      "type": "receive"
    }
  ],
  "bytecode": "0x608060405234801561001057600080fd5b50612aeb806100206000396000f3fe6080604052600436106100a05760003560e01c8063977d08c011610064578063977d08c014610170578063a8f24df814610199578063ad66e52a146101d9578063ba53619314610204578063bf2928a61461022d578063d6290cd714610244576100a7565b80631f23d446146100ac5780632112c11d146100d757806340ea0a94146101145780634585e33b1461011e5780638e69246414610147576100a7565b366100a757005b600080fd5b3480156100b857600080fd5b506100c1610276565b6040516100ce9190611adf565b60405180910390f35b3480156100e357600080fd5b506100fe60048036038101906100f99190611b6c565b61027c565b60405161010b9190611adf565b60405180910390f35b61011c610294565b005b34801561012a57600080fd5b5061014560048036038101906101409190611bfe565b610541565b005b34801561015357600080fd5b5061016e60048036038101906101699190611db8565b6108df565b005b34801561017c57600080fd5b5061019760048036038101906101929190611e6a565b610b76565b005b3480156101a557600080fd5b506101c060048036038101906101bb9190611ede565b610d5d565b6040516101d0949392919061201c565b60405180910390f35b3480156101e557600080fd5b506101ee610e2f565b6040516101fb9190611adf565b60405180910390f35b34801561021057600080fd5b5061022b60048036038101906102269190612094565b610e37565b005b34801561023957600080fd5b50610242611127565b005b34801561025057600080fd5b506102596116f6565b60405161026d9897969594939291906122b1565b60405180910390f35b60075481565b600a6020528060005260406000206000915090505481565b600660009054906101000a900460ff16156102db576040517f553ae05400000000000000000000000000000000000000000000000000000000815260040160405180910390fd5b6003600060069054906101000a900463ffffffff1663ffffffff160361032d576040517ffd72ae9700000000000000000000000000000000000000000000000000000000815260040160405180910390fd5b60003411610367576040517f356680b700000000000000000000000000000000000000000000000000000000815260040160405180910390fd5b6000600a60003373ffffffffffffffffffffffffffffffffffffffff1673ffffffffffffffffffffffffffffffffffffffff168152602001908152602001600020540361042c576001600260008282546103c1919061236c565b925050819055506009339080600181540180825580915050600190039060005260206000200160009091909190916101000a81548173ffffffffffffffffffffffffffffffffffffffff021916908373ffffffffffffffffffffffffffffffffffffffff1602179055505b34600c60003373ffffffffffffffffffffffffffffffffffffffff1673ffffffffffffffffffffffffffffffffffffffff168152602001908152602001600020600082825461047b919061236c565b9250508190555034600a60003373ffffffffffffffffffffffffffffffffffffffff1673ffffffffffffffffffffffffffffffffffffffff16815260200190815260200160002060008282546104d1919061236c565b9250508190555034600160008282546104ea919061236c565b925050819055503373ffffffffffffffffffffffffffffffffffffffff167fd143b3fca8f81682799e935736170faff446dc630e9babfdc72e4ae53c181a26346040516105379190611adf565b60405180910390a2565b600660009054906101000a900460ff1615610588576040517f553ae05400000000000000000000000000000000000000000000000000000000815260040160405180910390fd5b6007544210156105c4576040517f4d50620b00000000000000000000000000000000000000000000000000000000815260040160405180910390fd5b60035460015410610601576040517f4fbf92cf00000000000000000000000000000000000000000000000000000000815260040160405180910390fd5b600860009054906101000a900460ff1615610648576040517f36df8db700000000000000000000000000000000000000000000000000000000815260040160405180910390fd5b6001600860006101000a81548160ff0219169083151502179055507f92b0be06ad22b518afba60dd9e0986104041a2929e6094e9ff6cc6418e990cae60405160405180910390a16000600980549050905060005b818110156108d9576000600982815481106106ba576106b96123a0565b5b9060005260206000200160009054906101000a900473ffffffffffffffffffffffffffffffffffffffff169050600d60008273ffffffffffffffffffffffffffffffffffffffff1673ffffffffffffffffffffffffffffffffffffffff16815260200190815260200160002060009054906101000a900460ff166108c7576001600d60008373ffffffffffffffffffffffffffffffffffffffff1673ffffffffffffffffffffffffffffffffffffffff16815260200190815260200160002060006101000a81548160ff0219169083151502179055506000600c60008373ffffffffffffffffffffffffffffffffffffffff1673ffffffffffffffffffffffffffffffffffffffff1681526020019081526020016000205490506000600c60008473ffffffffffffffffffffffffffffffffffffffff1673ffffffffffffffffffffffffffffffffffffffff1681526020019081526020016000208190555060008273ffffffffffffffffffffffffffffffffffffffff168260405161083f90612400565b60006040518083038185875af1925050503d806000811461087c576040519150601f19603f3d011682016040523d82523d6000602084013e610881565b606091505b50509050806108c4577faf73b0b217208b61be286bbc37095bce7eb8b9ccf617244c2f0f154e8e04e3ff83836040516108bb929190612415565b60405180910390a15b50505b50806108d29061243e565b905061069c565b50505050565b600660019054906101000a900473ffffffffffffffffffffffffffffffffffffffff1673ffffffffffffffffffffffffffffffffffffffff163373ffffffffffffffffffffffffffffffffffffffff1614610966576040517f30cd747100000000000000000000000000000000000000000000000000000000815260040160405180910390fd5b6003600060069054906101000a900463ffffffff1663ffffffff16036109b8576040517ffd72ae9700000000000000000000000000000000000000000000000000000000815260040160405180910390fd5b6002808111156109cb576109ca611fa5565b5b600b60008060029054906101000a900463ffffffff1663ffffffff16815260200190815260200160002060030160009054906101000a900460ff166002811115610a1857610a17611fa5565b5b03610a4f576040517f1537a1e800000000000000000000000000000000000000000000000000000000815260040160405180910390fd5b6000600281819054906101000a900463ffffffff1680929190610a7190612496565b91906101000a81548163ffffffff021916908363ffffffff160217905550506000600b60008060029054906101000a900463ffffffff1663ffffffff168152602001908152602001600020905082816000019081610acf91906126ce565b5060008160010160006101000a81548160ff02191690831515021790555081816002018190555060028160030160006101000a81548160ff02191690836002811115610b1e57610b1d611fa5565b5b02179055503373ffffffffffffffffffffffffffffffffffffffff167f0602e1ee094e5b9bca3008c6dc2b270c10b72e5ad44b52232b6ababb78d6d89e83604051610b699190611adf565b60405180910390a2505050565b60008060019054906101000a900460ff16159050808015610ba75750600160008054906101000a900460ff1660ff16105b80610bd45750610bb6306119e7565b158015610bd35750600160008054906101000a900460ff1660ff16145b5b610c13576040517f08c379a0000000000000000000000000000000000000000000000000000000008152600401610c0a90612812565b60405180910390fd5b60016000806101000a81548160ff021916908360ff1602179055508015610c50576001600060016101000a81548160ff0219169083151502179055505b60008211610c8a576040517f7616640100000000000000000000000000000000000000000000000000000000815260040160405180910390fd5b32600660016101000a81548173ffffffffffffffffffffffffffffffffffffffff021916908373ffffffffffffffffffffffffffffffffffffffff160217905550848460059182610cdc92919061283d565b5082600381905550816004819055508142610cf7919061236c565b6007819055508015610d565760008060016101000a81548160ff0219169083151502179055507f7f26b83ff96e1f2b6a682f133852f6798a09c465da95921460cefb38474024986001604051610d4d9190612955565b60405180910390a15b5050505050565b600b602052806000526040600020600091509050806000018054610d80906124f1565b80601f0160208091040260200160405190810160405280929190818152602001828054610dac906124f1565b8015610df95780601f10610dce57610100808354040283529160200191610df9565b820191906000526020600020905b815481529060010190602001808311610ddc57829003601f168201915b5050505050908060010160009054906101000a900460ff16908060020154908060030160009054906101000a900460ff16905084565b600047905090565b6000600b60008060029054906101000a900463ffffffff1663ffffffff1681526020019081526020016000209050600280811115610e7857610e77611fa5565b5b8160030160009054906101000a900460ff166002811115610e9c57610e9b611fa5565b5b14610ed3576040517f474489de00000000000000000000000000000000000000000000000000000000815260040160405180910390fd5b6000600a60003373ffffffffffffffffffffffffffffffffffffffff1673ffffffffffffffffffffffffffffffffffffffff1681526020019081526020016000205403610f4c576040517f4862d81300000000000000000000000000000000000000000000000000000000815260040160405180910390fd5b60005b8160040180549050811015611017573373ffffffffffffffffffffffffffffffffffffffff16826004018281548110610f8b57610f8a6123a0565b5b9060005260206000200160000160009054906101000a900473ffffffffffffffffffffffffffffffffffffffff1673ffffffffffffffffffffffffffffffffffffffff1603611006576040517f7c9a1cf900000000000000000000000000000000000000000000000000000000815260040160405180910390fd5b806110109061243e565b9050610f4f565b508060040160405180604001604052803373ffffffffffffffffffffffffffffffffffffffff1681526020018415158152509080600181540180825580915050600190039060005260206000200160009091909190915060008201518160000160006101000a81548173ffffffffffffffffffffffffffffffffffffffff021916908373ffffffffffffffffffffffffffffffffffffffff16021790555060208201518160000160146101000a81548160ff02191690831515021790555050507e84851059a1f0cd038f2bf027e1b58425f3c38ba25232f7b384014b78ea1b69600060029054906101000a900463ffffffff16338460405161111b9392919061297f565b60405180910390a15050565b600660019054906101000a900473ffffffffffffffffffffffffffffffffffffffff1673ffffffffffffffffffffffffffffffffffffffff163373ffffffffffffffffffffffffffffffffffffffff16146111ae576040517f30cd747100000000000000000000000000000000000000000000000000000000815260040160405180910390fd5b6000600b60008060029054906101000a900463ffffffff1663ffffffff168152602001908152602001600020905080600201544211611219576040517f9a99d1be00000000000000000000000000000000000000000000000000000000815260040160405180910390fd5b60028081111561122c5761122b611fa5565b5b8160030160009054906101000a900460ff1660028111156112505761124f611fa5565b5b14611287576040517f474489de00000000000000000000000000000000000000000000000000000000815260040160405180910390fd5b6007544210156112c3576040517f2677ae4c00000000000000000000000000000000000000000000000000000000815260040160405180910390fd5b60008061139583600401805480602002602001604051908101604052809291908181526020016000905b8282101561138c578382906000526020600020016040518060400160405290816000820160009054906101000a900473ffffffffffffffffffffffffffffffffffffffff1673ffffffffffffffffffffffffffffffffffffffff1673ffffffffffffffffffffffffffffffffffffffff1681526020016000820160149054906101000a900460ff161515151581525050815260200190600101906112ed565b50505050611a0a565b915091506000670de0b6b3a7640000826002546113b291906129b6565b6113bc91906129ea565b905060006003670de0b6b3a764000060025460026113da91906129ea565b6113e491906129ea565b6113ee9190612a5b565b90508082106116885760018560010160006101000a81548160ff0219169083151502179055506000600681819054906101000a900463ffffffff168092919061143690612496565b91906101000a81548163ffffffff021916908363ffffffff1602179055505060008560030160006101000a81548160ff0219169083600281111561147d5761147c611fa5565b5b02179055506000479050600081036114c1576040517f356680b700000000000000000000000000000000000000000000000000000000815260040160405180910390fd5b60006001600060069054906101000a900463ffffffff1663ffffffff16036114f7576003826114f09190612a5b565b905061154b565b6002600060069054906101000a900463ffffffff1663ffffffff160361152b576002826115249190612a5b565b905061154a565b8190506001600660006101000a81548160ff0219169083151502179055505b5b6000600660019054906101000a900473ffffffffffffffffffffffffffffffffffffffff1673ffffffffffffffffffffffffffffffffffffffff168260405161159390612400565b60006040518083038185875af1925050503d80600081146115d0576040519150601f19603f3d011682016040523d82523d6000602084013e6115d5565b606091505b5050905080611610576040517f27fcd9d100000000000000000000000000000000000000000000000000000000815260040160405180910390fd5b600660019054906101000a900473ffffffffffffffffffffffffffffffffffffffff1673ffffffffffffffffffffffffffffffffffffffff167feaff4b37086828766ad3268786972c0cd24259d4c87a80f9d3963a3c3d999b0d836040516116789190611adf565b60405180910390a25050506116ef565b60018560030160006101000a81548160ff021916908360028111156116b0576116af611fa5565b5b02179055507f4e2fd11f84344693b41d2aba9910e33b34a4f02d4d3a65b65b2201f3c8fa3c8984846040516116e6929190612a8c565b60405180910390a15b5050505050565b60008060006060600080611708611a83565b6000600660019054906101000a900473ffffffffffffffffffffffffffffffffffffffff166004546003546005600254600154600b60008060029054906101000a900463ffffffff1663ffffffff168152602001908152602001600020600660009054906101000a900460ff16848054611781906124f1565b80601f01602080910402602001604051908101604052809291908181526020018280546117ad906124f1565b80156117fa5780601f106117cf576101008083540402835291602001916117fa565b820191906000526020600020905b8154815290600101906020018083116117dd57829003601f168201915b50505050509450816040518060a001604052908160008201805461181d906124f1565b80601f0160208091040260200160405190810160405280929190818152602001828054611849906124f1565b80156118965780601f1061186b57610100808354040283529160200191611896565b820191906000526020600020905b81548152906001019060200180831161187957829003601f168201915b505050505081526020016001820160009054906101000a900460ff16151515158152602001600282015481526020016003820160009054906101000a900460ff1660028111156118e9576118e8611fa5565b5b60028111156118fb576118fa611fa5565b5b815260200160048201805480602002602001604051908101604052809291908181526020016000905b828210156119c3578382906000526020600020016040518060400160405290816000820160009054906101000a900473ffffffffffffffffffffffffffffffffffffffff1673ffffffffffffffffffffffffffffffffffffffff1673ffffffffffffffffffffffffffffffffffffffff1681526020016000820160149054906101000a900460ff16151515158152505081526020019060010190611924565b50505050815250509150975097509750975097509750975097509091929394959697565b6000808273ffffffffffffffffffffffffffffffffffffffff163b119050919050565b60008060008060005b8551811015611a755760011515868281518110611a3357611a326123a0565b5b602002602001015160200151151503611a575782611a509061243e565b9250611a64565b81611a619061243e565b91505b80611a6e9061243e565b9050611a13565b828294509450505050915091565b6040518060a00160405280606081526020016000151581526020016000815260200160006002811115611ab957611ab8611fa5565b5b8152602001606081525090565b6000819050919050565b611ad981611ac6565b82525050565b6000602082019050611af46000830184611ad0565b92915050565b6000604051905090565b600080fd5b600080fd5b600073ffffffffffffffffffffffffffffffffffffffff82169050919050565b6000611b3982611b0e565b9050919050565b611b4981611b2e565b8114611b5457600080fd5b50565b600081359050611b6681611b40565b92915050565b600060208284031215611b8257611b81611b04565b5b6000611b9084828501611b57565b91505092915050565b600080fd5b600080fd5b600080fd5b60008083601f840112611bbe57611bbd611b99565b5b8235905067ffffffffffffffff811115611bdb57611bda611b9e565b5b602083019150836001820283011115611bf757611bf6611ba3565b5b9250929050565b60008060208385031215611c1557611c14611b04565b5b600083013567ffffffffffffffff811115611c3357611c32611b09565b5b611c3f85828601611ba8565b92509250509250929050565b600080fd5b6000601f19601f8301169050919050565b7f4e487b7100000000000000000000000000000000000000000000000000000000600052604160045260246000fd5b611c9982611c50565b810181811067ffffffffffffffff82111715611cb857611cb7611c61565b5b80604052505050565b6000611ccb611afa565b9050611cd78282611c90565b919050565b600067ffffffffffffffff821115611cf757611cf6611c61565b5b611d0082611c50565b9050602081019050919050565b82818337600083830152505050565b6000611d2f611d2a84611cdc565b611cc1565b905082815260208101848484011115611d4b57611d4a611c4b565b5b611d56848285611d0d565b509392505050565b600082601f830112611d7357611d72611b99565b5b8135611d83848260208601611d1c565b91505092915050565b611d9581611ac6565b8114611da057600080fd5b50565b600081359050611db281611d8c565b92915050565b60008060408385031215611dcf57611dce611b04565b5b600083013567ffffffffffffffff811115611ded57611dec611b09565b5b611df985828601611d5e565b9250506020611e0a85828601611da3565b9150509250929050565b60008083601f840112611e2a57611e29611b99565b5b8235905067ffffffffffffffff811115611e4757611e46611b9e565b5b602083019150836001820283011115611e6357611e62611ba3565b5b9250929050565b60008060008060608587031215611e8457611e83611b04565b5b600085013567ffffffffffffffff811115611ea257611ea1611b09565b5b611eae87828801611e14565b94509450506020611ec187828801611da3565b9250506040611ed287828801611da3565b91505092959194509250565b600060208284031215611ef457611ef3611b04565b5b6000611f0284828501611da3565b91505092915050565b600081519050919050565b600082825260208201905092915050565b60005b83811015611f45578082015181840152602081019050611f2a565b60008484015250505050565b6000611f5c82611f0b565b611f668185611f16565b9350611f76818560208601611f27565b611f7f81611c50565b840191505092915050565b60008115159050919050565b611f9f81611f8a565b82525050565b7f4e487b7100000000000000000000000000000000000000000000000000000000600052602160045260246000fd5b60038110611fe557611fe4611fa5565b5b50565b6000819050611ff682611fd4565b919050565b600061200682611fe8565b9050919050565b61201681611ffb565b82525050565b600060808201905081810360008301526120368187611f51565b90506120456020830186611f96565b6120526040830185611ad0565b61205f606083018461200d565b95945050505050565b61207181611f8a565b811461207c57600080fd5b50565b60008135905061208e81612068565b92915050565b6000602082840312156120aa576120a9611b04565b5b60006120b88482850161207f565b91505092915050565b6120ca81611b2e565b82525050565b600082825260208201905092915050565b60006120ec82611f0b565b6120f681856120d0565b9350612106818560208601611f27565b61210f81611c50565b840191505092915050565b61212381611f8a565b82525050565b61213281611ac6565b82525050565b61214181611ffb565b82525050565b600081519050919050565b600082825260208201905092915050565b6000819050602082019050919050565b61217c81611b2e565b82525050565b6040820160008201516121986000850182612173565b5060208201516121ab602085018261211a565b50505050565b60006121bd8383612182565b60408301905092915050565b6000602082019050919050565b60006121e182612147565b6121eb8185612152565b93506121f683612163565b8060005b8381101561222757815161220e88826121b1565b9750612219836121c9565b9250506001810190506121fa565b5085935050505092915050565b600060a083016000830151848203600086015261225182826120e1565b9150506020830151612266602086018261211a565b5060408301516122796040860182612129565b50606083015161228c6060860182612138565b50608083015184820360808601526122a482826121d6565b9150508091505092915050565b6000610100820190506122c7600083018b6120c1565b6122d4602083018a611ad0565b6122e16040830189611ad0565b81810360608301526122f38188611f51565b90506123026080830187611ad0565b61230f60a0830186611ad0565b81810360c08301526123218185612234565b905061233060e0830184611f96565b9998505050505050505050565b7f4e487b7100000000000000000000000000000000000000000000000000000000600052601160045260246000fd5b600061237782611ac6565b915061238283611ac6565b925082820190508082111561239a5761239961233d565b5b92915050565b7f4e487b7100000000000000000000000000000000000000000000000000000000600052603260045260246000fd5b600081905092915050565b50565b60006123ea6000836123cf565b91506123f5826123da565b600082019050919050565b600061240b826123dd565b9150819050919050565b600060408201905061242a60008301856120c1565b6124376020830184611ad0565b9392505050565b600061244982611ac6565b91507fffffffffffffffffffffffffffffffffffffffffffffffffffffffffffffffff820361247b5761247a61233d565b5b600182019050919050565b600063ffffffff82169050919050565b60006124a182612486565b915063ffffffff82036124b7576124b661233d565b5b600182019050919050565b7f4e487b7100000000000000000000000000000000000000000000000000000000600052602260045260246000fd5b6000600282049050600182168061250957607f821691505b60208210810361251c5761251b6124c2565b5b50919050565b60008190508160005260206000209050919050565b60006020601f8301049050919050565b600082821b905092915050565b6000600883026125847fffffffffffffffffffffffffffffffffffffffffffffffffffffffffffffffff82612547565b61258e8683612547565b95508019841693508086168417925050509392505050565b6000819050919050565b60006125cb6125c66125c184611ac6565b6125a6565b611ac6565b9050919050565b6000819050919050565b6125e5836125b0565b6125f96125f1826125d2565b848454612554565b825550505050565b600090565b61260e612601565b6126198184846125dc565b505050565b5b8181101561263d57612632600082612606565b60018101905061261f565b5050565b601f8211156126825761265381612522565b61265c84612537565b8101602085101561266b578190505b61267f61267785612537565b83018261261e565b50505b505050565b600082821c905092915050565b60006126a560001984600802612687565b1980831691505092915050565b60006126be8383612694565b9150826002028217905092915050565b6126d782611f0b565b67ffffffffffffffff8111156126f0576126ef611c61565b5b6126fa82546124f1565b612705828285612641565b600060209050601f8311600181146127385760008415612726578287015190505b61273085826126b2565b865550612798565b601f19841661274686612522565b60005b8281101561276e57848901518255600182019150602085019450602081019050612749565b8683101561278b5784890151612787601f891682612694565b8355505b6001600288020188555050505b505050505050565b7f496e697469616c697a61626c653a20636f6e747261637420697320616c72656160008201527f647920696e697469616c697a6564000000000000000000000000000000000000602082015250565b60006127fc602e83611f16565b9150612807826127a0565b604082019050919050565b6000602082019050818103600083015261282b816127ef565b9050919050565b600082905092915050565b6128478383612832565b67ffffffffffffffff8111156128605761285f611c61565b5b61286a82546124f1565b612875828285612641565b6000601f8311600181146128a45760008415612892578287013590505b61289c85826126b2565b865550612904565b601f1984166128b286612522565b60005b828110156128da578489013582556001820191506020850194506020810190506128b5565b868310156128f757848901356128f3601f891682612694565b8355505b6001600288020188555050505b50505050505050565b6000819050919050565b600060ff82169050919050565b600061293f61293a6129358461290d565b6125a6565b612917565b9050919050565b61294f81612924565b82525050565b600060208201905061296a6000830184612946565b92915050565b61297981612486565b82525050565b60006060820190506129946000830186612970565b6129a160208301856120c1565b6129ae6040830184611f96565b949350505050565b60006129c182611ac6565b91506129cc83611ac6565b92508282039050818111156129e4576129e361233d565b5b92915050565b60006129f582611ac6565b9150612a0083611ac6565b9250828202612a0e81611ac6565b91508282048414831517612a2557612a2461233d565b5b5092915050565b7f4e487b7100000000000000000000000000000000000000000000000000000000600052601260045260246000fd5b6000612a6682611ac6565b9150612a7183611ac6565b925082612a8157612a80612a2c565b5b828204905092915050565b6000604082019050612aa16000830185611ad0565b612aae6020830184611ad0565b939250505056fea264697066735822122030af8d67abdcd9f4163b26389f73070298d6d248c3bf82d1e1e11e5479ad713764736f6c63430008130033",
  "linkReferences": {},
  "deployedLinkReferences": {}
}